:040000000C94B102A9
:100004000C9400000C941E030C9400000C949404B3
:100014000C9400000C9400000C9421040C94000037
:100024000C9400000C9400000C940C040C9400003C
:100034000C94DF030C9400000C9400000C9400005A
:100044000C9400000C9400000C9400000C9400002C
:10005400000000000000000000000000000000009C
:10006400000000000000000000000000000000008C
:10007400000000000000000000000000000000007C
:10008400000000000000000000000000000000006C
:10009400000000000000000000000000000000005C
:1000A400000000000000000000000000000000004C
:1000B400000000000000000000000000000000003C
:1000C400000000000000000000000000000000002C
:1000D400000000000000000000000000000000001C
:1000E400000001000000000000000000000000000B
:1000F40000000000000000000000000000000000FC
:1001040000000000000000000000000000000000EB
:100114000000803F0000000000000000000000001C
:1001240000000000000000000000000000000000CB
:1001340000000000000000000000000000000000BB
:1001440000000000000000000000000000000000AB
:10015400000000000000000000000000000000009B
:10016400000000000000000000000000000000008B
:10017400000000000000000000000000000000007B
:10018400000000000000000000000000000000006B
:10019400000000000000000000000000000000005B
:1001A400000000000000000000000000000000004B
:1001B400000000000000000000000000000000003B
:1001C400000000000000000000000000000000002B
:1001D400000000000000000000000000000000001B
:1001E400000000000000000000000000000000000B
:1001F40000000000000000000000000000000000FB
:1002040000000000000000000000000000000000EA
:1002140000000000000000000000000000000000DA
:1002240000000000000000000000000000000000CA
:1002340000000000000000000000000000000000BA
:1002440000000000000000000000000000000000AA
:100254000000000025342E336600636865636B5F1D
:10026400627974652025782070756C7365436865C0
:10027400636B2025780A005349474E207365742028
:10028400746F2025640A005349474E207365742017
:10029400746F2064656661756C742025640A00704F
:1002A400756C73654D617856616C7565734C696DD9
:1002B400697444656661756C742025640A00707500
:1002C4006C73654D617856616C7565734C696D69C5
:1002D400742025640A006469666653616D706C65F8
:1002E400734C696D69742064656661756C7420254E
:1002F400640A006469666653616D706C65734C6969
:100304006D69742025640A0077696E5F73697A6584
:100314002064656661756C742025640A0077696ED3
:10032400646F7753697A652025640A0070756C736D
:100334006557696474682064656661756C7420250A
:10034400640A0070756C7365576964746820256469
:10035400200A006761696E2025342E3366206F669B
:10036400667365742025342E336620736572696163
:100374006C20256C6420637574745F6F6666202539
:10038400342E33660A006761696E2025342E336685
:10039400206F66667365742025342E336620256CC1
:1003A4007520637574742025342E33660A000000AA
:1003B4002D4E414E0000010000002D4E414E0049DB
:1003C4004E4600000A0004005400010060045E0070
:1003D4000100610460000100620462000100630422
:1003E4006400010064046600010065046800010003
:1003F40066046A00010067046C00010068046E0072
:1004040001006904700001006A04720001006B04B9
:10041400740001006C04760001006D047800010092
:100424006E047A0001006F047C00010070047E00F9
:100434000100710480000100720482000100730451
:100444008400010074048600010075048800010022
:1004540076048A00010077048C00010078048E0081
:1004640001007904900001007A04920001007B04E9
:10047400940001007C04960001007D0498000100B2
:100484007E049A0001007F049C00010080049E0009
:1004940001008104A00001008204A2000100830481
:1004A400A40004008404A60004008804AA00040034
:1004B4008C04AE0004009004B20004009404B6005E
:1004C40004009804BA0004009C04BE000400A004C4
:1004D400C2000400A404C6000400A804CA00040066
:1004E400AC04CE000400B004D2000400B404D6006E
:1004F4000400B804DA000400BC04DE000400C004F4
:10050400E2000100C404E6000200C504E8000200A1
:10051400C704EA000400C904EC000400CD04F000A0
:100524000400D104F4000100D504F8000100D6044D
:10053400FA000100D704FC000100D205FE0001000E
:10054400D30500010100D40502010100D505100105
:100554000100D60512010400D905BA030000F8947D
:10056400EE27ECBBF1E0FBBFEBBFE5BFE8ECF3E04B
:1005740085919591009761F0A591B591059015909D
:10058400BF01F00105900D920197E1F7FB01F0CF57
:10059400EFE5EDBFE8E0EEBFC0E6D4E00C942F0831
:1005A400AA93E881E7B988E28A95F1F7E6B1E364B2
:1005B400E6B9349BFECF349AE4B1F5B1F3702196D9
:1005C40008950E94B317E0E0EA83EB830E94561F6C
:1005D40010E000E020E030E0C49A84E08A95F1F76E
:1005E400C498A5E50E944B171E2F1F71A5E50E9414
:1005F4004B170E2FE12FF0E00E94431EDF01CB01C9
:10060400E8E00E94201E0E94B817E02FF0E00E944C
:10061400431E0E94B817EC81FD81FF719F0134FDD8
:10062400306F84E08A95F1F7C49AF9010E94431E61
:100634000E945D1F289608950A921A926A937A93EB
:100644008A939A93AA93BA93EA93FA93EFB7EA93A5
:10065400E091D704F0E03097A1F5E0916304E03035
:1006640041F4E0916404E03021F4E0916504E03069
:1006740021F1E3E0E3BFE1E0E093D704E093690410
:10068400E0936104E0E0E093C904E093CA04E093DA
:10069400CB04E093CC04E0936604E093CD04E093B0
:1006A400CE04E093CF04E093D004E0939404E09369
:1006B4009504E0939604E0939704E0E0E0936204E9
:1006C4006FC0E130A0E0FA0709F06AC0E2B70E9407
:1006D400C317AFE6B2E183E89BE30E94531D7F9307
:1006E4006F93FF93EF93E091C904F091CA04609172
:1006F400CB047091CC040E94C71CAFE6B2E183E83E
:100704009FE30E94531DAF91BF918F919F910E94CF
:10071400031DE0939404F0939504609396047093FE
:100724009704E1E0E0936904ADECB4E00E94C917DA
:10073400A0919404B09195048091960490919704AB
:10074400E0E0F0E66AEE76E40E94E61D30F1E09324
:10075400D704E1E0E0936204E0916304E03031F017
:10076400E0E0E0936304E1E0E0936604E091640474
:10077400E03031F0E0E0E0936404E1E0E09367040A
:10078400E0916504E03031F0E0E0E0936504E1E0FD
:10079400E0936804E0E0E3BF03C0E1E0E093D70442
:1007A400E991EFBFF991E991B991A9919991899151
:1007B400799169911990099018950E94D2171A930A
:1007C4000A931BB10CB1E12FEC7109F5E091D2054C
:1007D400EF5FE093D205E150F0E0E852FB4F008375
:1007E400A091D205AA3F19F4E0E0E093D205A091CC
:1007F400D405AF5FA093D405AA3F29F4E0E0E093C9
:10080400D405689420F80E94E01709F453D10991A3
:1008140019917AC06A937A93AA93BA93EA93FA9352
:10082400EFB7EA93A9ECB4E00E94C917E991EFBFCE
:10083400F991E991B991A9917991699118950E94D9
:10084400D2172C978CE0A0E0B0E0E4E0F1E00E9445
:10085400621FE091D504E03009F455C0E0E0E09374
:10086400D5040E94E9170E94F2170E94F9170E940A
:10087400A11DA0E0B4E284E799E40E94531DDF01C6
:10088400CB01E0E0F0E060E070E40E94A11DDF0134
:10089400CB01E4EBF8E46BE772E40E94A11D0E9433
:1008A400FE170E9403180E9484170E9403180E94D6
:1008B4000818DF01CB01E0E0F0E060E07FE30E9494
:1008C400E61D09F008F405C00E9403180E9492175F
:1008D40004C00E9403180E9484170E940D180E94ED
:1008E40012180E94901C0E9417180E941A18E07097
:1008F400FF7F60707070DF01CB01E8E00E942C1E66
:10090400EBBDE881EABD2C96E991EFBFF991E9913D
:10091400B991A9919991899179916991F9901990D5
:10092400099018950A921A92AA93BA93EA93FA93A1
:10093400EFB7EA93E091D505F0E0309771F4A09118
:10094400D605A23038F0E0E0E0937A04E1E05E2ED0
:10095400E093D5050E941D18A4C0E130A0E0FA0779
:10096400C1F5E1E0E51529F4E093D5050E941D18D1
:100974002FC00E9423180E9428181CF00E942F18D0
:100984000CF402C0E1E001C0E0E0E09370040E94D6
:1009940023180E9437181CF00E943E180CF402C061
:1009A400E1E001C0E0E0E09380040E941D18E091C2
:1009B400D604A091D605EA1759F4E0E0E093D605F1
:1009C400D998DA9AE1E0E0937B04E2E0E093D5057C
:1009D40068C0E230A0E0FA0709F050C0A091D60543
:1009E400A23010F4E1E001C0E0E0E0937B04E09188
:1009F400D604F0E07A97A091D605B0E0AE17BF0711
:100A040014F4E1E001C0E0E0E09379040E942318CB
:100A14000E9428181CF00E942F180CF402C0E1E078
:100A240001C0E0E0E0936F040E9423180E9437188D
:100A34001CF00E943E180CF402C0E1E001C0E0E0AA
:100A4400E09381040E941D18E091D604A091D6057C
:100A5400EA1799F4E0E0E093D605D99AE1E0E0934F
:100A64007A04DA98E0918204E093D604E091770462
:100A7400E0937604E0E0E093D50513C0E330A0E012
:100A8400FA0779F40E941D18A091D605AC3349F4F5
:100A9400E0E0E093D605D99ADA98552011F4E09372
:100AA400D505E991EFBFF991E991B991A99119900F
:100AB400099018951A9310E00E94461811F01F5FD0
:100AC400FBCF0E94461819F40E94E01709F0BEC03B
:100AD400E12FF0E0E752FB4FE081F0E0E130A0E0ED
:100AE400FA0719F4E1E08E2EB1C0E230A0E0FA0773
:100AF40019F4E1E0BE2EAAC0E330A0E0FA0719F42D
:100B0400E1E0DE2EA3C0E530A0E0FA0721F4E1E045
:100B1400E09363049BC0E630A0E0FA0721F4E1E02F
:100B2400E093640493C0E730A0E0FA0721F4E1E025
:100B3400E09360048BC0E830A0E0FA0721F4E1E020
:100B4400E0936A0483C0E930A0E0FA0721F4E1E00D
:100B5400E09365047BC0EA30A0E0FA0721F4E1E009
:100B6400E0936B0473C0EB30A0E0FA0721F4E1E0FA
:100B7400E0936C046BC0EC30A0E0FA0721F4E1E0F0
:100B8400E0936D0463C0ED30A0E0FA0721F4E1E0E6
:100B9400E09372045BC0EE30A0E0FA0721F4E1E0D8
:100BA400E093710453C0EF30A0E0FA0721F4E1E0D0
:100BB400E09373044BC0E031A0E0FA0721F4E1E0D4
:100BC400E093740443C0E131A0E0FA0719F4E1E0D2
:100BD4004E2E3CC0E231A0E0FA0721F4E1E0E093BC
:100BE400750434C0E331A0E0FA0721F4E1E0E093B6
:100BF4007C042CC0E431A0E0FA0721F4E1E0E093A6
:100C04007D0424C0E531A0E0FA0721F4E1E0E0939B
:100C14007E041CC0E631A0E0FA0721F4E1E0E09391
:100C24007F0414C0E333A0E0FA0719F4E1E07E2E58
:100C34000DC0E434A0E0FA0719F4E1E06E2E06C01A
:100C4400E838A0E0FA0711F4E1E09E2E1991089526
:100C54000E94FE1EE2971A930A9310E0E3E0EA83EF
:100C6400FE0133960E944D18E8ADF9AD6AAD7BAD37
:100C74000E945418DE0112960E9466111E2F1F5FF7
:100C84000E945B18E4E0EC9300E0011740F4E02FCD
:100C94000E945B18AC910E947F110F5FF6CF1981FF
:100CA4000881E8960895AA93EF97A5970E94561F86
:100CB40010E000E030E020E000E0E3E0E88F01E055
:100CC40020E0FE01E859FF4FE0812E1750F5FE01A8
:100CD40034960E944D18E22FDE01A359BF4F0D90A8
:100CE400BC91A02DF0E00E9461180E945418DE010E
:100CF40014960E9466111E2FE02FF0E0DE01589634
:100D0400EA0FFB1FFA93EA930E946818A12FBB27EE
:100D14000E942A11010F0E946D18ECE2EC932F5FE0
:100D2400D0CF01500E946D18E4E0EC9330E030170E
:100D340058F4E32FF0E0DE015896AE0FBF1FAC91DC
:100D44000E947F113F5FF3CF0E945D1FEF96AC9628
:100D5400089521970E94541F10E00E9475180E2FC9
:100D6400A5E1B0E00E941D1F3E2FA7E1B0E00E9464
:100D74001D1F2E2FABE1B0E00E941D1F5E2FAAE1C4
:100D8400B0E00E941D1F4E2FADE1B0E00E941D1F78
:100D9400EE83EEE5F2E0FA93EA93E22F0E947A18EA
:100DA400E32F0E947A1888E00E94E3142A96AE8109
:100DB400A53559F0E1E0E093C404EE81AEE1B0E082
:100DC4000E94391FEBE7F2E009C01EE1AEE1B0E09A
:100DD4000E941D1FE093C404EBE8F2E0FA93EA9347
:100DE400E091C4040E943D1E0E948018553569F0AC
:100DF400ECE3FFE00E948718E091C504ACE1B0E0A9
:100E04000E94391FE3EAF2E00AC01CE1A12FBB27CC
:100E14000E941D1FF0E00E948718E2ECF2E0FA93B2
:100E2400EA930E948C180E94431E0E948018453544
:100E340069F0EAEFF0E00E949118E091C704AAE19A
:100E4400B0E00E94391FEAEDF2E008C01AE10E9406
:100E54009618F0E00E949118E7EFF2E0FA93EA9313
:100E64000E949B180E94431E0E948018253571F031
:100E7400E8E0E0937604E0937704E0917604A8E157
:100E8400B0E00E94391FECE0F3E009C018E10E94D1
:100E94009618E0937604E0937704E1E2F3E0FA93A2
:100EA400EA93E09176040E947A1884E00E94E314A5
:100EB4002696353571F0E4E6E093D604E093820497
:100EC400E091D604A6E1B0E00E94391FE0E3F3E02C
:100ED4000AC016E10E949618E093D604E0938204B7
:100EE40018E1E7E4F3E0FA93EA93E091D6040E9470
:100EF4007A1884E00E94E31426960B3B51F10E9479
:100F0400A018E0938C04E0938D04E0938E04E093A6
:100F14008F04E0E00E94AA18EEE4F1E66CEB70E0C6
:100F24000E94B318A1E0B0E0EEE4F1E66CEB70E0EF
:100F34000E94291FE0E0F0E060E07FE30E94BC181B
:100F44000E94C518A1E1B0E00E94291FE7E5F3E083
:100F540016C015E00E94CE180E94D31819E00E9412
:100F6400CE180E94DC1811E00E94CE180E94B3181B
:100F740011E10E94CE180E94BC18EAE8F3E0FA934B
:100F8400EA930E94E5180E94F91E0E94EE180E943E
:100F9400F91E0E94F7180E94F91E0E94C5180E94AB
:100FA400F91E80E10E94E31462960E945B1F27965B
:100FB4000895E6ECEABBE0E2EBBBE0EBE7BBE0E084
:100FC400E8BBE8E1E4BBE0E0E5BBE2EEE1BBE0E086
:100FD400E2BBE3BFE2BFECBFE3E4EFBDE8E1EEBD9B
:100FE400E0E0EDBDECBDE7BDE6BDE2E0EBBDE9E26E
:100FF400EABDE0E0E9BDE8BDE1E9E9BFEBB7E068DF
:10100400EBBFECE0E5BFE0E0E4BFE0E8EABFE0E02E
:10101400EBB9E8E9EAB9E6E8E0BDE0E0E0BDE9E61D
:10102400E9B9E0E8E8B9E0E0E0BFE7B9E7E8E6B944
:10103400E3E5EDB9E0E0EEB9E6BF7894DB9A979A80
:101044000895EFE0E1BD0895E0E0E2BDECE0E5BD28
:10105400E0E0E4BDEEEFE3BD0895EF97EF97A697C8
:10106400D25083E491E0A1E6B1E0E4E1F1E00E9432
:10107400631F10E000E030E020E050E040E0E4B71F
:10108400E88397DF66DE88EB9BE00197F1F7DCDF0E
:10109400CC24D7DFE881E87029F0A7EDB5E00E9401
:1010A400001905C0E0E0E093D705E093D805A895C2
:1010B400E0916C04E03011F1E0E0E093D205E093BC
:1010C4006C04DE01A353BE4FED93ED93ED93EC93CB
:1010D400DE01A353BE4F0D901D908D919C91D001C4
:1010E400A034E2E4BE07EFE08E07E0E09E0730F4B0
:1010F400DE01A353BE4F0E94C917EACFE1E0E61513
:1011040059F4E0E0E093D205772466244424AA2429
:10111400E0936E04E0937C04E0916304E03041F4D6
:10112400E0916404E03021F4E0916504E03019F0CA
:10113400E0E0E093D205E0917A04E030F9F041DA9E
:10114400DF010E940215DE01AD56BD4FED93FC9305
:101154000E940619DE01AD56BD4F0D90BC91A02D25
:10116400EA17FB075CF4FE01ED56FD4F0190F08198
:10117400E02DDE01A157BD4FED93FC93E0917B047C
:10118400E030F9F01EDADF010E940215DE01AF56ED
:10119400BD4FED93FC930E940D19DE01AF56BD4F78
:1011A4000D90BC91A02DEA17FB075CF4FE01EF56ED
:1011B400FD4F0190F081E02DDE01A357BD4FED936B
:1011C400FC93E0917004E03081F0A4E0E9D90E943E
:1011D4001419EA0FFB1FDE01AD57BD4FED93FC93CD
:1011E400DE01A957BD4F0E940019E0918004E03050
:1011F40061F1E7D9DE01A156BD4FED93FC930E9446
:101204001B19DE01A556BD4FED93FC930E942219D4
:10121400309739F40E941B19DE01A756BD4FED9398
:10122400FC930E941B190E9429190E94431E0E94CC
:101234000A1EDE01A752BE4FED93FD936D937C937E
:10124400DE01A557BD4F0E940019E0916F04E03004
:1012540089F0A4E00E94D2020E943219EA0FFB1F17
:10126400DE01AF57BD4FED93FC93DE01AB57BD4F8D
:101274000E940019E0918104E03069F10E94E302C8
:10128400DE01A356BD4FED93FC930E943919DE0194
:10129400A956BD4FED93FC930E944019309739F441
:1012A4000E943919DE01AB56BD4FED93FC930E94A9
:1012B40039190E9447190E94431E0E940A1EDE012A
:1012C400AB52BE4FED93FD936D937C93DE01A75714
:1012D400BD4F0E940019E0916204E03009F031E052
:1012E400E0916904E03081F0E0E0F0E06BE373E466
:1012F4000E9450193496DF010E945B190E946619FE
:101304000E946C19E0936904E0917904E03011F0D3
:10131400203009F487C020E0E0916D04E03009F04A
:101324001DD5E0916A04E03009F057D5E0916004DE
:10133400E03009F0E9D5E1E0E81509F438D6E1E058
:10134400EB1509F46FD6E0917104E03011F0A6E1D9
:10135400C0D6E0917204E03011F0A1E1BAD6E09178
:101364007304E03011F0A1E065D7E0917404E0303B
:1013740011F0A0E05FD7E0917504E03011F0A8E12E
:10138400A8D6E0917D04E03011F0AAE1A2D6E09164
:101394007E04E03011F0ACE19CD6E0917F04E030B3
:1013A40011F0AEE196D6E0916B04E03021F00E949A
:1013B40073190E947C19E1E0E41561F5E0E0E09323
:1013C400D205FE01E755FE4F0190119061917081A5
:1013D400F0010E94501934960E948719FE01E759C2
:1013E400FE4F3896DE01AF59BE4F0D901D908D9182
:1013F4009C91D0010E9492193C960E9498190E94D7
:10140400921970960E94A1190E949219FA93EA9374
:10141400A5E049DCAA2031F0E0E0E093D2050E9487
:10142400A11916DC552081F0DE01A557BD4F0D90A2
:10143400BC91A02D109741F0DE01A757BD4F0D9030
:10144400BC91A02D109709F486C4E0917C04E0308F
:1014540051F10E94AA190E94B9190E945019349698
:10146400BF010E94BE19DB010E94CD193896DF012D
:101474000E9406190E94CD193C96DF010E940D19A5
:101484000E94CD197096DF01FE01EE55FD4FE081FB
:101494000E94CF190E946619FA93EA93A5E003DC2F
:1014A400E0E0E093D205E0E0DE01A158BD4FED930A
:1014B400EC93DE01A358BD4FED93EC930E948C187E
:1014C400DE01A157BD4F0D90BC91A02DAE17BF07F3
:1014D4005CF40E948C18DE01A357BD4F0D90BC91A3
:1014E400A02DAE17BF070CF002C0E1E001C0E0E0A0
:1014F400DE01AD55BD4FEC93E0E0DE01A157BD4FD9
:10150400ED93EC93DE01A357BD4FED93EC930E9452
:10151400AA19DF010E949B18EA17FB0744F00E94F6
:10152400BE19DF010E949B18EA17FB0714F451E06F
:1015340001C050E0E0916B04E03021F00E94731987
:101544000E947C190E94D5190E9429190E94051F26
:101554000E94A11D0E94DB19E091C404F0E0E7FDA4
:10156400FFEFDE01AF55BE4F0D901D908D919C9104
:10157400D0010E94E3190E94DB190E94E7190E941E
:1015840047190E94051F0E94A11D0E94ED19E091B8
:10159400C404F0E0E7FDFFEF0E94F5190E94E3198F
:1015A4000E94ED190E94FE190E9414190E94091A42
:1015B400DE01A756BE4FED93FD936D937C930E947D
:1015C400101A0E9432190E94091ADE01AB56BE4F4E
:1015D400ED93FD936D937C93E0916E04E030D1F034
:1015E4000E94D5190E9450193496DF010E94E71910
:1015F4000E9466193896DF010E94FE190E9466193E
:101604003C96DF010E94101A0E9466190E941B1A60
:10161400E093D205E0E0DE01A557BD4FED93EC93D6
:10162400DE01A757BD4FED93EC93DE01A957BD4FE3
:10163400ED93EC93DE01AB57BD4FED93EC93DE01DC
:10164400A752BE4FED93ED93ED93EC93DE01AB52B5
:10165400BE4FED93ED93ED93EC93DE01AD57BD4F8B
:10166400ED93EC93DE01AF57BD4FED93EC93E09116
:101674006104E030C1F00E94F5190E94221A0E9410
:101684002B1A0E94351A0E943E1A0E94031DDE0185
:10169400AF54BE4FED93FD936D937C93DE01AF5237
:1016A400BE4F0E94C917303009F4E0C030E0FE019B
:1016B400EF52FE4F0190119061917081F0010E94F0
:1016C4003E1A0E94C71C0E94A11DDE01AF56BE4FE8
:1016D400ED93FD936D937C930E945B19A0E0B0E4BD
:1016E4008CE196E40E94531DDF01CB01E091940448
:1016F400F091950460919604709197040E94A11D45
:10170400DE01A357BE4FED93FD936D937C93E0E010
:10171400DE01AF54BE4FED93ED93ED93EC93DE01F8
:10172400AF52BE4FED93ED93ED93EC930E94471AA5
:10173400E0E0E0936204E0936104E0916604E03049
:10174400E1F00E94501AE0939804F0939904609396
:101754009A0470939B040E94591AE0939C04F0939A
:101764009D0460939E0470939F040E94621A0E94D9
:10177400641A0E946C19E0936604E0916704E030F7
:10178400E1F00E94501AE093A004F093A104609346
:10179400A2047093A3040E94591AE093A404F09342
:1017A400A5046093A6047093A7040E94621A0E9481
:1017B400641A0E946C19E0936704E0916804E030B5
:1017C40009F454C00E946E1A0E94591A0E94FC1C0B
:1017D400DF01CB010E94E5180E94A11D0E94771A27
:1017E400DE01A357BE4F0D901D908D919C91D001A9
:1017F400E0918404F09185046091860470918704DB
:101804000E94FC1CDF01CB010E94501A0E94A11D02
:10181400A0E0B0E088EC92E40E94531DDE01A757DB
:10182400BE4FED93FD936D937C930E94621A3496A0
:101834000E94E9170E9492193896DE01A757BE4FFD
:101844000D901D908D919C91D0010E9492193C960F
:10185400DE01AF56BE4F0D901D908D919C91D0012D
:101864000E9492190E941B1AE09368040E94221A93
:101874000E94801A0E94031DDE01AB53BE4FED93FC
:10188400FD936D937C93FE01E356FE4F01901190FE
:1018940061917081F0010E94891A0E94031DDE018A
:1018A400AF53BE4FED93FD936D937C93FE01E756CA
:1018B400FE4F0190119061917081F0010E94921A83
:1018C4000E94031DDE01A354BE4FED93FD936D935F
:1018D4007C93FE01EB56FE4F019011906191708153
:1018E400F0010E949B1A0E94031DDE01A754BE4F03
:1018F400ED93FD936D937C93A091D604E2E0EA9F6F
:10190400F001A8EEB3E00E94781EA02FB0E0EA1721
:10191400FB0709F01FC2E0E0DE01A753BE4FED93C1
:10192400ED93ED93EC93DE01A355BE4FED93ED9350
:10193400ED93EC93DE01A755BE4FED93ED93ED933C
:10194400EC930E94471A21E0E02F0E94C3170E94E3
:10195400A41A0E94801A0E94A81AE02F0E94C3179A
:101964000E94A41A0E94891A0E94B21AE02F0E94AF
:10197400C3170E94A41A0E94921A0E94BC1AE02F54
:101984000E94C3170E94A41A0E949B1A0E94C71A9D
:10199400E0917804F0E0DE01A75FBE4F0E94D11A07
:1019A4000E94D61A0E94DF1ADE01AF54BF4F0E9474
:1019B400D11A0E948719E0917804F0E0DE01A75A59
:1019C400BF4F0E94D11ADE01AB55BE4F0D901D9042
:1019D4008D919C91D0010E94DF1ADE0111960E9424
:1019E400D11A0E9498190E94F41EE0917604F0E046
:1019F4003197A0917804B0E0EA17FB0711F4E0E016
:101A040003C0E0917804EF5FE093780410E0E09184
:101A140076041E1708F04DC0E12FF0E0DE01A75F49
:101A2400BE4F0E9461180E94E51A0E94031DE093B4
:101A3400A804F093A9046093AA047093AB04E12F63
:101A4400F0E0DE01AF54BF4F0E9461180E94EE1A0D
:101A54000E94031DE093AC04F093AD046093AE04C4
:101A64007093AF04E12FF0E0DE01A75ABF4F0E944C
:101A740061180E94F71A0E94031DE093B404F093C6
:101A8400B5046093B6047093B704E12FF0E0DE016F
:101A940011960E9461180E94001B0E94031DE0938E
:101AA400B004F093B1046093B2047093B3041F5F65
:101AB400AECF0E94091B0E94E51A0E94B21A0E942E
:101AC400091B0E94EE1A0E94A81A0E94091B0E9478
:101AD400F71A0E94C71A0E94091B0E94001B0E9449
:101AE400BC1A0E94D61AFE01E355FE4F01901190D4
:101AF40061917081F0010E942B1A772069F0DE0158
:101B0400AB54BE4F0D901D908D919C91D0010E94BD
:101B14002A06E0E0E093D205A0918304A130B1F459
:101B2400E3E3F3E36BE271E40E940C1B0E94C5182B
:101B34000E94A1190E94E61D11F008F004C0EEB540
:101B4400E87FEEBD02C00E94171BC5C0A0918304AC
:101B5400A03051F40E941E1B0E944E1F29F00E94C7
:101B64006E1A0E944E1F09F4A3C0ADE0B0E00E94BB
:101B7400151FE093BC04F093BD046093BE047093FE
:101B8400BF040E94271B0E9498190E94A11DDE0118
:101B9400AF59BE4FED93FD936D937C930E946E1AE3
:101BA4000E94351A0E94FC1C7F936F93FF93EF935E
:101BB400FE01EF59FE4F0190119061917081F00187
:101BC4000E941E1B0E94531DAF91BF918F919F9144
:101BD4000E94A11D0E940C1BFE01ED55FD4FE081EA
:101BE400E03011F0E1E020C0A091C004B091C10444
:101BF4008091C2049091C304EDECFCEC6CE47FE3AF
:101C04000E94A11DA0E0B0E08AEF91E40E94531D60
:101C14000E94301B09F008F402C0E2E005C0503015
:101C240011F0E3E001C0E0E0DE01AE55BD4FEC93FE
:101C3400E030B9F0DE01AF55BD4FEC91EF5FEC93AE
:101C4400DE01AF55BD4FAC91A53050F0EEB5E87F45
:101C5400EEBD9798E0E0DE01AF55BD4FEC93AC9A32
:101C640026C0979AAC98E0E0DE01AF55BD4FEC93E7
:101C7400DE01A859BE4FAC91AA236AF40E94C5188C
:101C84000E94301B20F4EEB5E87FEEBD03C0969AA7
:101C94000E94171B0CC096980E94C5180E94301B06
:101CA40020F4EEB5E87FEEBD02C00E94171B13C0FE
:101CB400E0E0DE01AB59BE4FED93ED93ED93EC9371
:101CC400E0938404E0938504E0938604E09387041E
:101CD400EEB5E87FEEBDE0E0DE01AB53BE4FED9321
:101CE400ED93ED93EC93DE01AF53BE4FED93ED9383
:101CF400ED93EC93DE01A354BE4FED93ED93ED937E
:101D0400EC93DE01A754BE4FED93ED93ED93EC936A
:101D140000E0E093A804E093A904E093AA04E0930C
:101D2400AB04E093AC04E093AD04E093AE04E09321
:101D3400AF04E093B404E093B504E093B604E093F5
:101D4400B704E093B004E093B104E093B204E093E9
:101D5400B30401C00F5F5524AAC9FFCF64971A9337
:101D64000A9310E000E0E0E0E0936D0400E0FE017F
:101D740032960E94341B0E94391B11E0E02FF0E0E0
:101D8400E652FB4FA081A43021F0E091D2050E175A
:101D940008F00BC0E02F0E945B18E02FF0E0E65241
:101DA400FB4FE081EC930F5FE9CFE12FF0E0FF936D
:101DB400EF93DE0112960E944B15AF91BF910E94E2
:101DC400291FDE0112960E944B150E94B318E0E011
:101DD400E093D205198108812BC2A8970E94541F51
:101DE40030E020E050E040E0FE0170960E94341B99
:101DF400AAE0B0E00E943C110E946818E0E0EA9377
:101E0400AAE0B0E00E943C11FE017A960E94341BC5
:101E14000E94391BE0E0E0936A0430E0FE017A9608
:101E24000E94341B0E94391BE32FF0E0E752FB4F62
:101E3400A081A43021F0E091D2053E1708F00EC035
:101E4400E32FF0E0DE015A96AE0FBF1FE32FF0E060
:101E5400E752FB4FE081EC933F5FE6CFDE015A96F9
:101E64000E9466112E2FFE017A96FA93EA93ACE251
:101E74000E944C118F01FE017A96AE2FE02FEA1BCF
:101E8400EF5F5E2FFE017096FA93EA93FE017D9652
:101E9400FA93EA93E52FF0E03197DF010E942A11CB
:101EA400E22FE51B4E2F0E946818E52FF0E0DE01BB
:101EB4005C96EA0FFB1FFA93EA93A42FBB270E94B8
:101EC4002A11DE0150960E9451160E94D318DE0199
:101ED40016960E9451160E94DC180E943D1BE09148
:101EE400B804F091B9046091BA047091BB04ADE0F8
:101EF400B0E00E94291FE0E0E093D2050E944D1B50
:101F04000E945B1FAE9608952897E0E0E09360047A
:101F1400A091A404B091A5048091A6049091A70473
:101F2400E0919C04F0919D0460919E0470919F0443
:101F34000E94FC1C7F936F93FF93EF93A091A004E6
:101F4400B091A1048091A2049091A3040E94511B1A
:101F54000E94FC1CAF91BF918F919F910E94A11D83
:101F64000E94D3180E94511B0E941E1B0E94531DE5
:101F7400A0919C04B0919D0480919E0490919F0433
:101F84000E9408180E94DC180E944D1B0E94E5184C
:101F94000E9417180E94EE180E94FE170E943D1B13
:101FA400FE010E946C19E093D20528960895649767
:101FB400E0E0E88BE98BEA8BEB8B1A93E98BEA8BF5
:101FC400EB8BEC8BE093D20588240E944D1B0E947E
:101FD40075181E2F1B3B21F00E94A0180E94AA18FE
:101FE4000E94EE18E983FA836B837C830E94E518D0
:101FF400ED83FE836F8378870E94F7180E94C71CC5
:102004000E945A1B0E94271BED87FE876F87788BDF
:10201400FE013196FA93EA93A4E00E9455061881D2
:1020240065960895A097E0E0EC8FED8FEE8FEF8F2B
:102034001A93ED8FEE8FEF8FE8A3E093D205BB24C4
:102044000E944D1B0E9475181E2F1B3B21F00E94FD
:10205400A0180E94AA18E0E0F0E060E870E4E983C8
:10206400FA836B837C83E091D6040E94CF19ED83BD
:10207400FE836F8378870E94091B0E945A1B0E946B
:10208400C518ED87FE876F87788B0E948C180E9495
:10209400B919E98BFA8B6B8B7C8B0E949B180E947D
:1020A400B919ED8BFE8B6F8B788FE091C4040E947D
:1020B4003D1E0E94C91CE98FFA8F6B8F7C8FFE0135
:1020C4003196FA93EA93A7E00E9455061881A196E7
:1020D4000895AA9364971A9310E0FE0131960E9422
:1020E400341B0E94391BE12FF0E0E652FB4FA08124
:1020F400A43021F0E091D2051E1708F00EC0E12FA4
:10210400F0E0DE011196AE0FBF1FE12FF0E0E652C2
:10211400FB4FE081EC931F5FE6CFED89F0E0E13106
:10212400A0E0FA07B1F4DE0111960E9451160E9454
:10213400BC18E0E0E0937204ED89F0E0FF93EF93C4
:10214400DE0111960E945116AF91BF910E94291F82
:102154006BC0E831A0E0FA07D1F40E945F1BE09362
:102164007704E0E0E0937504ED89F0E0FF93EF93EA
:102174000E945F1BAF91BF910E94391FE0E0E09382
:102184007804E7E1ED8BAD89BB27E5E54BC0E6318B
:10219400A0E0FA0771F4E0E0E09371040E945F1B91
:1021A400E0938204A5E1B0E00E94631BA6E1B0E0E5
:1021B40039C0EA31A0E0FA0771F4E0E0E0937D046D
:1021C4000E945F1B0E949118A9E1B0E00E94631B6A
:1021D400AAE1B0E027C0EC31A0E0FA0771F4E0E036
:1021E400E0937E040E945F1B0E948718ABE1B0E07D
:1021F4000E94631BACE1B0E015C0EE31A0E0FA0729
:1022040099F4E0E0E0937F04E091C404E195E09365
:10221400C404ADE1B0E0E5E50E94391FE091C404D7
:10222400AEE1B0E00E94391FE0E0E093D2051881EE
:1022340066960895AA93E0E0E0937304E09374042F
:10224400E881E0938304E0E0E093D2050C948411E8
:10225400BA93AA9399818881009641F0BD81AC819B
:10226400FB81EA8161916D930197E1F7FD81EC8136
:1022740026960895BA93AA93B981A881109631F04D
:10228400FC81EB816A8161931197E9F7EB81FC8111
:102294000C94C811AA93A991E991F991B081AB1753
:1022A40029F03196BB23D1F7EE27FF270895BA937F
:1022B400AA93E991F991A991B991CD0105900D9253
:1022C4000020E1F7FC010895BA93AA93A991B9916A
:1022D400EE27FF276D91662311F03196FBCF089509
:1022E400BA93AA93AA27BB27E991F99105900020F4
:1022F40011F01196FBCFFD010895AA935D9BFECFCB
:10230400E881ECB921960895BA93AA93AA81F5DFDE
:10231400A881B9810E94001923960895BA93AA93BB
:102324001A930A93AA81BB8112960E94CC1E3097FD
:1023340029F1AA81BB8114960E94CC1E8F0130978B
:1023440061F00230E0E01E0780F0F80131978F0160
:10235400AA81BB811496ED93FC93AA81BB8112964A
:102364000E9400193197AC81A083AA81BB810E948D
:10237400CC1EFF2312F00E94001906C0AA81BB8163
:10238400EFEFFFEFED93FC931981088125960895F3
:10239400BA93AA930E94B317E0E8EA83EFE3EB83CE
:1023A4000E94561FEE85FF85EF3FAFEFFA0749F411
:1023B400E885F985FA93EA93A4EBB3E00E945911F6
:1023C400B4C0EF3FAFE7FA0749F4E885F985FA931B
:1023D400EA93A5EBB3E00E945911A7C0AB85A730DF
:1023E40010F0E6E0EB871B85E12F1150E03029F077
:1023F4000E94691B0E94FE17F7CF0E946B1B0E946C
:102404004A1F31F430E00E94691B0E94FE172DC060
:102414003B850E94701B09F008F40DC00E94691BE3
:102424000E94FE170E94701B28F00E947B1B0E94D2
:10243400801BF8CF0DC00E94701B30F40E948C1BCF
:102444000E948E1B3150F7CF0E94691B0E94FE1719
:102454000E946B1B0E94931B0E948E1B0E94701B88
:1024640020F00E947B1B0E94801B10E0EB85E1178B
:1024740080F10E9403180E949A1B0E94931BDF01A3
:10248400CB010E9484170E94FE17EC81FD816E81AE
:102494007F810E947B1B0E94A11D0E94901C0E2F15
:1024A4000E94A11B0E94A81B0E94CF190E9403181E
:1024B4000E94531D0E947B1B0E9408180E948E1BC1
:1024C400E12F1F5FE03091F60E94A11BEEE2EC9336
:1024D400CDCF0E94AD1B3197AA85A08330302CF458
:1024E4003195A885B985EDE203C0A885B985EBE2ED
:1024F400EC930E94AD1B0E94AD1B3197BF01A32F2B
:10250400EAE00E94601EE05DDB01EC930E94AD1BDB
:102514003197BF01A32FEAE00E94A21EE05DDB0118
:10252400EC93A885B985E0E0EC930E945D1F60966A
:102534000895BA93AA93EF9761970E94541F10E0ED
:10254400FE01E85AFF4F0190F081E02DE887F987FA
:10255400FE01EA5AFF4F0190F081E02DEE83FF83E4
:10256400AE81BF81E0E0F0E0ED93FC93DE01A45A7C
:10257400BF4F0E9400193197E4912E2FE03009F4E7
:10258400E9C1E12FE03039F4253211F411E002C041
:102594000E94B31BDEC1E130C1F4253219F40E945C
:1025A400B31BD6C112E0E0E0ED8B00E02D3211F454
:1025B40001E0CFC12B3219F4EBE2ED8BCAC120321A
:1025C40019F4E0E2ED8BC5C102C0E23039F450E009
:1025D40013E0203311F40068BCC102C0E33091F46D
:1025E400203310F02A3308F007C0AAE05A9F502D78
:1025F400E22FE0535E0FADC140E02E3211F414E03F
:10260400A8C10FC0E43099F4203310F02A3308F045
:1026140008C00062AAE04A9F402DE22FE0534E0F0B
:1026240098C12C3619F4026015E093C103C0E5305B
:1026340009F08FC1E22FE33659F40E94BA1B0E94BD
:10264400C11B0E94BA1BA481AA930E94C81B80C10B
:10265400E53411F0E53609F403C0E63609F048C064
:10266400FE017696EE87FF870E94CE1B0E94D01E45
:102674000E94D51B0E94DA1BAD85AA2332F0AD89D6
:10268400AB3259F0A03281F017C00E94DC1B0E94CB
:102694005D1C0E94D51BEDE2ED8B07FF05C0ED89A3
:1026A400EA930E94C81B08C0EE85FF853196EE8729
:1026B400FF873197AD89A08305FF46E0263651F4A4
:1026C4000E94DC1B0E94F91E4A93AB89BC890E94BC
:1026D400911509C00E94DC1B0E94F91E4A932A939B
:1026E400AC89BD8955DEFE0176960E94E11B1EC0B1
:1026F400E33739F40E94DA1B0E94E91B0E94E11BB4
:102704000EC0E037C1F40E94DA1B0E94E91BEE8779
:10271400FF87AE85BF850E9472111E2F08600F7758
:10272400403011F0411708F001C0142F40E0E0E000
:10273400EC8B30E06DC0E43611F0E93611F404603E
:1027440002C0E537A1F4EAE0EC8B01FF08C0E0E049
:10275400FAEC6AE97BE30E94EE1B1AE022C0E0E196
:10276400F7E260E070E00E94EE1B15E01AC0E83565
:1027740011F4086003C0E83709F0EAC0E0E1EC8B2B
:1027840001FF08C0E0E0F0E060E070E10E94EE1BB1
:1027940018E007C0E0E0F0E160E070E00E94EE1BAA
:1027A40014E0403011F00F7701C041E001FF08C090
:1027B4000E94DA1B0E94CE1B14960E94D01E0FC0EA
:1027C40002FF07C00E94DA1B0E94E91B0E94431EFD
:1027D40006C00E94DA1B0E94E91B66277727EA8756
:1027E400FB876C877D8702FF12C0AD85AA2342F464
:1027F4000E94DC1B0E94181E0E94D51BEDE2ED8B8B
:10280400ED89E03019F01F5F4F5F01C00B7F342F5B
:1028140000FD14C0151710F4351708F00FC007FF9A
:1028240008C002FF04C00B7F2D89115001C020E3B2
:1028340001C020E20E94B31B5150ECCF141790F456
:10284400006102FF06C00E94F31B09F051501150B1
:102854004150E0E3EA930E94C81B503009F0515004
:102864004150ECCF312FEC89E030B9F43030A1F095
:1028740003FF06C0EE85FF852591EE87FF8705C01F
:10288400AE85BF852D91AE87BF870E94B31B5030A4
:1028940009F051503150EACF51C00E94051C0E94EA
:1028A4007D1E2E2F2A3030F003FF02C0295C01C0A8
:1028B400295A01C0205D04FD21C0213360F4A88998
:1028C400B9898A899B89A130E0E0BE07E0E08E07E0
:1028D400E0E09E0709F40BC0431740F4531710F0CF
:1028E40000FF01C010C020E207FF08C020E3006120
:1028F40002FF04C00E94F31B09F051500E94B31B55
:10290400503009F0515031500E94051C0E94AE1EF7
:102914000E94D51BEC89A889B9898A899B89FF27DC
:10292400662777270E947D1E0E94EE1BE889F9899D
:102934006A897B890E944A1F09F0AFCF00FF08C053
:10294400503031F05150E0E2EA930E94C81BF8CFB6
:1029540010E00CCEAE81BF810E94CC1E0E945B1F92
:10296400EF966F960895FF92F82E26970E94561FB1
:102974000E940E1C309719F4EFEFFFEF1DC0DE012B
:1029840016960E94061E8D010E940E1CEE83FF8384
:10299400E0E0E887E987DE011A960E94151CE0E969
:1029A400F1E1FA93EA93DE011A96C3DD9F01AE8149
:1029B400BF81E0E0EC93F9010E945D1F2A96FF902D
:1029C4000895FF92F82E26971A930A93DE0114961F
:1029D4000E94061E8D01E0E0EC83ED83EE83EF831D
:1029E400DE0118960E94151CE6E8F1E1FA93EA93D9
:1029F400DE0118969EDD198108812896FF900895BE
:102A0400BA93AA93E991F99130971AF4E095F09565
:102A1400319608950E94FE1EE991F9916991799188
:102A24007F770895BA93AA93B981A881EC918A2FEC
:102A3400AE2F0E94A817A82FEE2311F01196F6CFFF
:102A4400E894EC91ED3211F4689402C0EB3209F48D
:102A5400119666277727EC918A2FAE2F0E949F1735
:102A6400A82FEE2379F0FB01660F771F660F771FFF
:102A74006E0F7F1F660F771FED91FF27E0536E0FD8
:102A84007F1FE9CFFB011EF4E095F0953196229665
:102A94000895BA93AA93B981A881EC91AF93AE2F0C
:102AA4000E94A817AF91EE2311F01196F6CFE89487
:102AB400EC91ED3211F4689402C0EB3209F41196F2
:102AC4000024112488279927EC91AF93AE2F0E94FC
:102AD4009F17AF91EE2389F0F001BC011BD01AD0EF
:102AE4000E0E1F1E861F971F15D0ED91FF27E05372
:102AF4000E0E1F1E8F1F9F1FE7CFF001BC0146F46F
:102B0400E095F0956095709588273196681F781F39
:102B140022960895000C111C881F991F0895BA93DA
:102B2400AA930E94B317E0E0EA83EFE3EB831A93DE
:102B34000A93EB85FC85EF3FAFEFFA0739F40E9467
:102B44001E1CAEEBB3E00E945911A5C0EF3FAFE7E6
:102B5400FA0739F40E941E1CAFEBB3E00E9459112E
:102B64009AC0AC85AA2362F4E985FA856B857C85D5
:102B74000E945D1C0E945A1B0E94231CEDE2EC93F0
:102B8400A885A73010F0E6E0E8871885E12F1150FA
:102B9400E03039F00E942A1C0E949A1B0E942F1CCC
:102BA400F5CF0E94341C0E94031D0E945A1B10E0A2
:102BB4000E943D1C0E942F1C0E94341C0E94E61D92
:102BC40088F00E942A1C0E94F2170E942F1C1F5F8B
:102BD400173238F00E941E1CA3ECB3E00E94591176
:102BE4005AC0EACF103029F40E94231CE0E3EC938E
:102BF40027C0E12F1150E03019F10E942A1C0E94D5
:102C04009A1B0E94931BDF01CB010E9484170E9430
:102C14002F1C0E94341C0E94A11D0E94901C0E2F88
:102C24000E94231C0E94A81BF0E00E942A1C0E9400
:102C3400E3190E94421C0E9408180E945A1BD9CF13
:102C4400E885E03021F10E94231CEEE2EC93E88554
:102C5400E150E887EF5FD9F00E94421C0E94F2170E
:102C64000E945A1BE985FA856B857C850E94901C1D
:102C74000E2F0E94231C0E94A81BF0E00E94421CFD
:102C84000E94B9190E9408180E945A1BE0CFAE8115
:102C9400BF81E0E0EC93198108812D960895BA93E1
:102CA400AA932A970E94541FE0E0E887E987EA87FD
:102CB400EB87A889B989EC915E2FAE2F0E94A817E3
:102CC400E03031F0E889F9893196E88BF98BF1CF5E
:102CD400E0E0EF835B3221F05D3239F4E1E0EF8331
:102CE400E889F9893196E88BF98BE0E04E2F5E2F65
:102CF40008891989A889B989AC910E949F17E03085
:102D040049F4A889B989AC91EEE20E944D1E5E2F68
:102D1400E03039F0452BE889F9893196E88BF98B55
:102D2400E9CF28893989403029F1E889F98931972F
:102D3400E88BF98BA889B989AC91AE32D9F0A8890E
:102D4400B989EC91F0E0F0970E94471C0E94B919F0
:102D54000E94031DDF01CB01E0E0F0E060E271E4DA
:102D64000E94A11D0E940D18E889F9893197E88B0A
:102D7400F98BE0CF0E943D1C0E948E1BA889B98963
:102D84001197A88BB98BA017B10790F0EC91F0E0E4
:102D9400F0970E947B1B0E94E3190E94471C0E942B
:102DA400031D0E940D180E948C1B0E948E1BE6CFEF
:102DB400D9012F5F3F4F5C91553619F0553409F016
:102DC40059C0E0E04E2FEE83D9015C915B3221F0D3
:102DD4005D3221F4E1E0EE832F5F3F4FD9012F5F95
:102DE4003F4FEC915E2FAE2F0E949F17E03039F0D9
:102DF400AAE04A02F001E50FE0534E2FEFCF47322D
:102E040068F0EF81E03029F0EFEFFFEF6FE77FEF3D
:102E14003CC0EFEFFFEF6FE77FE737C050E20E945F
:102E24003D1C0E948E1B503089F00E946B1B0E9437
:102E34007B1B0E94531D0E948E1BE42FE52321F06F
:102E44000E948C1B0E948E1B5695EDCFEE81E030C4
:102E540039F00E946B1B0E94471C0E94A11D06C0F2
:102E64000E946B1B0E94471C0E94531DE887F98730
:102E74006A877B87EF81E03031F00E9412180E944C
:102E84005D1C0E940D180E9412180E945B1F62961E
:102E94000895AA93E881EFB9779BFECFEFB121960D
:102EA40008950E94FE1E7B816A81F981E88177FB87
:102EB400770F67FD7160972F9E5781F078F09831F6
:102EC40090F4AA27BB27882708948795B795A795D8
:102ED4009A95D1F7EA23FB23682305C0E894772762
:102EE400EE27FF2766276F77769508F4606877F9F1
:102EF400A991B99189919991EA17FB076807790714
:102F040097FB08950E944C1C19F40E941A1813C0D0
:102F1400E6F70E941A180E94F9170E94FC1C0BC0C5
:102F24000E944C1C19F40E941A1805C0E6F30E9472
:102F34001A180E94A41A24960895AA93E1E0F9911C
:102F4400F03310F0FA3308F0EE270895AA93E1E085
:102F5400F991F03229F0F93010F0FE3008F0EE2744
:102F640008952497E0E0E883E9830895AC81BD8166
:102F74008E819F810E940F1EEC83FD836E837F836D
:102F84000895F0E00E94431E0E94C91C08950E9407
:102F9400D61EEF5FFF4F6F4F7F4F0E94E01E0895D4
:102FA4000A921A92FA926A937A938A939A93AA93B8
:102FB400BA93EA93FA93EFB7EA930895E091D205AE
:102FC400F0E03197E852FB4FA081A4300895A0911E
:102FD4008404B091850480918604909187040895B7
:102FE400E0E0F0E060E271E40E94531D0895A0E087
:102FF400B0E080E89FE30895EC83FD836E837F83D4
:103004000895AC81BD818E819F8108950E94081F1F
:103014000E94FC1C0895E887F9876A877B870895D6
:10302400E885F9856A857B8508950E94EF1E0895D9
:103034000E94E51E0895E091D605EF5FE093D60562
:103044000895E091D604F0E00F0108957997A091D6
:10305400D605B0E0AE17BF070895F0017597A091AB
:10306400D605B0E0EA17FB0708957497A091D6053A
:10307400B0E0AE17BF070895F0013197A091D605CF
:10308400B0E0EA17FB070895E12FF0E0E852FB4FA8
:10309400A081A3300895FA93EA93E8E5F2E0FA9365
:1030A400EA9308950E94F91E84E00E94B5142896BC
:1030B4000895F0E0DE011296AE0FBF1F08950E943E
:1030C400381EAE0FBF1F0E94D01E0895FE01369613
:1030D400FA93EA930895E02F0F5FF0E0DE0158962B
:1030E400AE0FBF1F0895A0E0B0E00E941D1F089519
:1030F400FF27662777270E94F91E08950E94F91E6C
:1031040084E00E94E31426960895E093C504F093A6
:10311400C6040895E091C504F091C6040895E093AF
:10312400C704F093C8040895A12FBB270E941D1F54
:103134000895E091C704F091C8040895E0E0E09395
:103144008804E0938904E0938A04E0938B0408954F
:10315400E0939004E0939104E0939204E093930449
:103164000895E093D104F093D2046093D304709350
:10317400D4040895E093C004F093C1046093C2049E
:103184007093C3040895E091C004F091C104609168
:10319400C2047091C3040895A12FBB270E94151F78
:1031A4000895E0939004F0939104609392047093D3
:1031B40093040895E0938804F093890460938A0447
:1031C40070938B040895E0919004F09191046091C0
:1031D4009204709193040895E0918804F091890415
:1031E40060918A0470918B040895E091D104F09168
:1031F400D2046091D3047091D4040895ED91FD91AB
:103204003196FE93EE930895FE01E157FD4F019030
:10321400F081E02D0895FE01E357FD4F0190F08108
:10322400E02D0895DE01AD57BD4F0D90BC91A02D4A
:103234000895FE01E156FD4F0190F081E02D0895BF
:10324400FE01E557FD4F0190F081E02D0895DE0168
:10325400A752BE4F0D901D908D919C91D001089561
:10326400DE01AF57BD4F0D90BC91A02D0895FE0116
:10327400E356FD4F0190F081E02D0895FE01E757DC
:10328400FD4F0190F081E02D0895DE01AB52BE4F59
:103294000D901D908D919C91D0010895DE01A75948
:1032A400BE4FED93FD936D937C93FE01E759FE4F62
:1032B4000895E091CD04F091CE046091CF04709113
:1032C400D0040E94C71C08950E94DB1EFE01E7592A
:1032D400FE4F0895FA93EA93A2E00E945506E0E0B7
:1032E4000895E091D705F091D805662777270E94C5
:1032F400C91CD4CFFA93EA93A1E00E945506E0E0FA
:10330400E0936B04E093D2050895DE01A355BE4F0C
:103314000D901D908D919C91D0010E94F41E0895F2
:103324000E94F41EFE01E759FE4F0895A091B804CF
:10333400B091B9048091BA049091BB040895DE0160
:10334400AB59BE4F0D901D908D919C91D001089565
:10335400DE01A556BD4F0D90BC91A02DFE01E75690
:10336400FD4F0190F081E02DEA1BFB0B08950E94B4
:10337400431E0E94C91C0895DE01AB56BD4F0D903B
:10338400BC91A02DFE01E956FD4F0190F081E02D86
:10339400EA1BFB0B0895EBDF97CFFF276627772700
:1033A4000E94C91C08954CDF662777270E94C91C18
:1033B4000895DE01AF55BE4FED93FD936D937C935D
:1033C4000895D5DF0E94531D089558DF6627772797
:1033D4000E94C91C0895DE01A356BE4FED93FD93D0
:1033E4006D937C930895DE01A356BE4F0D901D90FE
:1033F4008D919C91D0010895FE01E957FD4F0190F4
:10340400F081E02D662777270E94C91C089588273C
:1034140099270E94051F0E94A11D0895FE01EB57E4
:10342400FD4F0190F081E02D662777270E94C91C8B
:103434000895FA93EA93A4E00E945506E0E0089503
:10344400FE01EF55FE4F0190119061917081F001E2
:1034540008950E94FC1CDE01AB54BE4FED93FD9316
:103464006D937C930895FE01EB54FE4F01901190EF
:1034740061917081F0010895DE01AF54BE4F0D904B
:103484001D908D919C91D0010895E0E0DE01AB5434
:10349400BE4FED93ED93ED93EC930895FE01E35746
:1034A400FE4F0190119061917081F0010895FE0129
:1034B400EF56FE4F0190119061917081F0010895D3
:1034C400EDDFECCE3496DE01AF56BE4F0D901D906D
:1034D4008D919C91D00124CFA0918804B09189044E
:1034E40080918A0490918B040895E0938404F0936E
:1034F400850460938604709387040895DE01AB53BA
:10350400BE4F0D901D908D919C91D0010895DE01C8
:10351400AF53BE4F0D901D908D919C91D001089595
:10352400DE01A354BE4F0D901D908D919C91D0014E
:103534000895DE01A754BE4F0D901D908D919C916E
:10354400D001089554DD0E94031D08950E94A11D19
:10355400DE01A355BE4FED93FD936D937C930895C7
:103564000E94A11DDE01A755BE4FED93FD936D93FF
:103574007C9308950E94A11DE093B804F093B904CC
:103584006093BA047093BB0408950E94A11DDE01E8
:10359400AB55BE4FED93FD936D937C9308950E94BC
:1035A400381EEA0FFB1F0895DE01A755BE4F0D908C
:1035B4001D908D919C91D00108950E94F41EE0917C
:1035C4007804F0E00895A091A804B091A904809132
:1035D400AA049091AB040895A091AC04B091AD04F9
:1035E4008091AE049091AF040895A091B404B09179
:1035F400B5048091B6049091B7040895A091B004E5
:10360400B091B1048091B2049091B3040895E09113
:103614007604C3CEDE01AB59BE4FED93FD936D939B
:103624007C938DDE0E940C1560CFEEB5E560EEBD97
:10363400E1E0E093D5040895A0919004B091910441
:1036440080919204909193040895E091BC04F091C8
:10365400BD046091BE047091BF040895B8DC0E945B
:10366400E61D0895FA93EA93E0E0EA930895A4E14D
:10367400B0E00C943C11A0E0B0E0EBEB0E94391FE9
:10368400A2DDA5E0B0E00E94291FA6DDA9E0B0E01C
:103694000E94291F0895A8EEB3E00C94531CE091F6
:1036A4009804F091990460919A0470919B04089590
:1036B400E987FA876B877C870895DE0111960C945D
:1036C4001415E5E50E94391FE0918204089599DC00
:1036D40087CCEC85FD856E857F850895EC81FD8121
:1036E4006E817F81AC85BD858E859F850E94E61D98
:1036F4000895AC85BD858E859F850895EDECFCEC21
:103704006CEC7DE30E94531DEC87FD876E877F87F9
:103714003F5F0895EEDF64CCEC87FD876E877F877B
:103724000895A0E0B0E080E09FE30E94031D0895A7
:10373400EDECFCEC6CEC7DE30E94531D0895A88530
:10374400B9851196A887B98711970895E02FE05D90
:10375400EC93E02F0895E885F9853196E887F98799
:1037640008952A93AF81B885E985FA850995089566
:10377400FE01E65AFF4F0190F081E02D0895349741
:10378400DE01A65ABF4FED93FC930895AF81B8852F
:10379400E985FA8509950895DE01A65ABF4F0D9073
:1037A400BC91A02D0895EA87FB876C877D870895D7
:1037B400DFDFE5CFEA85FB856C857D850895EE879F
:1037C400FF87AE85BF850E9466111E2F0895E4DF32
:1037D40014960E94CC1E0895E88BF98B6A8B7B8B20
:1037E40008950B7FED89EA93DE01A95ABF4F0D902E
:1037F400BC91A02DFE01E75AFF4F0190F081E02D0E
:10380400099550300895E889F9896A897B89AA85E0
:10381400BB858C859D850895DE011C960E94061E3D
:103824000E94CC1E08950E94061E0E94CC1EFA938C
:10383400EA931A930A930895EE81FF81FA93EA9327
:103844000895AE81BF811196AE83BF831197089509
:10385400AA81BB818C819D810895EA83FB836C835B
:103864007D830895EA81FB816C817D81A985BA8578
:103874008B859C850895E0E0F0E060E87FE308959F
:10388400A985BA858B859C850895A885B9858A857F
:103894009B8508950E94FE1E0E94EA1E0E945317F3
:1038A400C4CB109639F088EB9BE00197F1F7A8950B
:1038B4001197C9F7089530976040704009F0705827
:1038C4000895552342F4503811F4E0FF04C03196B2
:1038D400691F791F6BF050E8572711F45F93CFC02D
:1038E4005F3F31F0660F000C57956795752F08956B
:1038F4005F9300200AF0CFC0C8C050E8192E1522EB
:10390400880F991F9527550F879550E8072E052294
:10391400660F771F7527550F67950895689401C042
:10392400E8945F93F2DF703818F07F3F08F4A7C083
:1039340056E1571BAAF4519558300EF4593030F023
:10394400EFEFFFEF6FEF7FE777F91AC07727552383
:10395400B9F0EE0FFF1F661F771F5A95D1F710C0FD
:103964007727583028F0EF2FF62F672F5850F9CFCC
:10397400552331F076956795F795E7955A95D1F7E4
:1039840000200AF453D15F910895689401C0E8942B
:10399400309760407040B1F0002426F0772312F491
:1039A400009444D1172E7EE1112032F07A95EE0F67
:1039B400FF1F661F111CF9CFEF2FF62F612D5F93A8
:1039C4008ADF5F9108954F93AF01FD01DA01AB01E6
:1039D400BC01CA01402D012C142E4F910895EA0F09
:1039E400FB1F681F0895E095F0956095EF5FFF4F0A
:1039F4006F4F08955F9381DF903871F150E8152679
:103A040004C05F937ADF903839F1703821F1572F71
:103A1400591B2BF112F4D7DFFACF583118F0AA272B
:103A2400BB278827583028F0AB2FB82F8827585049
:103A3400F9CF552329F08695B795A7955A95D9F7C7
:103A4400502D512572F0CBDF38F46795F795E79543
:103A5400739513F420C0B7DF3EDF5F910895D8F764
:103A6400FBCFEA1BFB0B680B51F010F40094BBDF97
:103A7400662392F3EE0FFF1F661F7A95CBF7EE27AE
:103A8400FF27662777275F910895EFEFFFEF6FE732
:103A94007FEF5F910895EFEFFFEF6FE77FE75F91AF
:103AA40008955F932ADF703851F3903841F301246D
:103AB4000894791F23F41CF300203AF3ECCF0F92FF
:103AC4001F932F933F934F93112722279927689F82
:103AD400A0018F9F302D410D591F6B9F300D411D4B
:103AE400591F8E9F27D0BF9F25D06A9F23D0BE9F8A
:103AF4001DD0AF9F1BD0AE9F110D291F391F491F29
:103B0400591FE32FF42F652F522F4F913F912F917F
:103B14001F910F9066232AF0550FEE1FFF1F661F9B
:103B240002C073954BF2CDDE5F910895100D211DF7
:103B3400391F02C0200D311D491F591F08955F937D
:103B4400DCDE703821F411200AF49FCFA4CF903822
:103B540009F495CF01240894970B1BF4D4F30020A7
:103B6400F3CF792F1F932F933F934F931124112752
:103B7400222733274427552790E2AE17BF0786072D
:103B8400410730F0AE1BBF0B860B410B089401C0FC
:103B94008894551F221F331F111CAA1FBB1F881F87
:103BA400441F9A9551F7F901612D4F913F912F913F
:103BB4001F91662332F0550FEE1FFF1F661F7A9583
:103BC40043F27FDE5F91089599239AF0772342F0C0
:103BD400971748F029F4AE17BF07860720F031F095
:103BE40098948894089598940894089518948894BF
:103BF40008957723C2F7971798F3A9F7EA17FB07F5
:103C0400680788F399F3ECCF0024AF0DB01D089535
:103C1400EA0FFB1F681F791F0895EA2BFB2B682B03
:103C2400792B0895F195E195F0400895F09560950C
:103C34007095E195FF4F6F4F7F4F0895EE230E2E41
:103C4400FD01BC0131F0EE0FFF1F661F771F0A94C0
:103C5400D1F70895EE230E2EFD01BC0131F07695C7
:103C64006795F795E7950A94D1F70895EE0FFF1F2E
:103C7400EE0FFF1F0895FE2FFF0FFF0B6F2F7F2FF7
:103C840008956F2F660F660B762F08958B2F880F7C
:103C9400880B982F0895EA17E1E009F0EE270895BC
:103CA400002498E0AA0F001C0E1A10F40E0E01C096
:103CB400A1609A95B9F7EA2FA02D089551D0F0DFAD
:103CC4000EF4E19508950024112490E1AA0FBB1F7E
:103CD400001C111C0E1A1F0A18F40E0E1F1E01C020
:103CE400A1609A9599F7FD01D001089545D0EBDFC5
:103CF4000EF498DF08953F934F935F9300241124AB
:103D04004427552730E2AA0FBB1F881F991F001CA8
:103D1400111C441F551F0E1A1F0A460B570B28F47B
:103D24000E0E1F1E461F571F01C0A1603A9559F77A
:103D3400FD01BC01D001CA015F914F913F910895EB
:103D4400E894A7FF02C0A1956894E7FDE195A8DF78
:103D5400EA2F0EF4E1950895CEDFFD01BC0108952C
:103D6400E894E7FF02C0E1956894A7FF04C0A19519
:103D740000F8039400FA0895E894F7FF02C052DFB4
:103D84006894B7FF06C0A095B095119600F8039407
:103D940000FA0895ED91FC9111970895ED91FD912C
:103DA4006D917C9113970895ED91FD916D917D91A5
:103DB4000895ED93FD936D937C9308957E936E9394
:103DC400FE93EE930895E881F9816A817B810895D9
:103DD400A881B9818A819B810895E883F9836A83E4
:103DE4007B830895A083B1838283938308957A9318
:103DF4006A93FA93EA9308959A938A93BA93AA9347
:103E04000895689401C0E89401D0C2DD182E862F6D
:103E1400612D192E972F712D1B2EBF2FF12D1A2EC8
:103E2400AE2FE12D0895129602D0BF01129711967C
:103E340002D0FE2F1197E199FECFFF93FFB7F894BC
:103E4400AEBBBFBBE09AEDB3FFBFFF91089507D0AF
:103E540012960F01FB0103D0F0011297089507D0C9
:103E64001196EF93EF2F03D0EF9111970895E19BF3
:103E740002C0A895FCCF9FB7F894AEBBBFBBE09A35
:103E84008DB3E81719F0EDBBE29AE19A9FBF08954C
:103E9400309760407040089500240A160B06080607
:103EA400090608955A934A933A932A931A930A93C4
:103EB40008955D814C813B812A811981088108958F
:103EC4009927AC0FBD1F05900D920197E1F7089556
:00000001FF
