:0E0000000C94A3000C9400000C9408010C94C6
:10000E0000000C9455020C9400000C9400000C940B
:10001E000D020C9400000C9400000C9400000C9443
:10002E00F8010C9400000C94B3010C9400000C9495
:10003E0000000C9400000C9400000C9400000C9432
:10004E0000000C9400001027E80364000A00010071
:10005E000010000110000100000000000000000070
:10006E000000000000000000000000000000000082
:10007E000000000000000000000000000000000072
:10008E000000000000000000000000000000000062
:10009E000000000000000000000000000000000052
:1000AE000000000000000000000000000000000042
:1000BE000000000000000000000000000000000032
:1000CE000000000000000000000025342E33660002
:1000DE0025342E3466006761696E2025342E336612
:1000EE00206F66667365742025342E336620736523
:1000FE007269616C20256C640A006761696E202547
:10010E00342E3366206F66667365742025342E3365
:10011E006620256C750A000001002D4E414E0049E7
:10012E004E4600000100020066000A00040068004E
:10013E000100AA0326010000F894EE27ECBBF1E0C3
:10014E00FBBFEBBFE5BF8DE0A2E0BB27ED938A9529
:10015E00E9F780E098E0A0E6ED930197E9F7E2E396
:10016E00F1E085919591009761F0A591B59105907B
:10017E001590BF01F00105900D920197E1F7FB017B
:10018E00F0CFEFE5EDBFE8E0EEBFC0E6D2E00C94B5
:10019E007E040E94000D0E94EC1110E000E020E0B1
:1001AE0030E0C19A84E08A95F1F7C198A5E50E94E6
:1001BE00E40C1E2F1F71A5E50E94E40C0E2FE12FFB
:1001CE00F0E00E946211DF01CB01E8E00E944511D0
:1001DE000E94070DE02FF0E00E9462110E94070DB1
:1001EE00EC81FD81FF719F0134FD306F84E08A95B3
:1001FE00F1F7C19AF9010E9462110E94F31128963B
:10020E0008950E94120DE091A802F0E03097A1F53A
:10021E00E0916202E03041F4E0916302E03021F4BB
:10022E00E0916402E03021F1E3E0E3BFE1E0E0932E
:10023E00A802E0936802E0936002E0E0E0939B0284
:10024E00E0939C02E0939D02E0939E02E093650290
:10025E00E0939F02E093A002E093A102E093A2023A
:10026E00E0937F02E0938002E0938102E0938202AA
:10027E00E0E0E09361026FC0E130A0E0FA0709F020
:10028E006AC0E2B70E941F0DAFE6B2E183E89BE3BE
:10029E000E9478107F936F93FF93EF93E0919B02F0
:1002AE00F0919C0260919D0270919E020E94EC0F53
:1002BE00AFE6B2E183E89FE30E947810AF91BF9161
:1002CE008F919F910E942810E0937F02F0938002FD
:1002DE006093810270938202E1E0E0936802AFE9DD
:1002EE00B2E00E94250DA0917F02B0918002809114
:1002FE00810290918202E0E0F0E66AEE76E40E94DE
:10030E000B1130F1E093A802E1E0E0936102E0917D
:10031E006202E03031F0E0E0E0936202E1E0E0936F
:10032E006502E0916302E03031F0E0E0E0936302B9
:10033E00E1E0E0936602E0916402E03031F0E0E04B
:10034E00E0936402E1E0E0936702E0E0E3BF03C004
:10035E00E1E0E093A80295C00A921A92FA926A938B
:10036E007A938A939A93AA93BA93EA93FA93EFB7EE
:10037E00EA931A930A931BB10CB1E12FEC7109F5B4
:10038E00E091A303EF5FE093A303E150F0E0E755A4
:10039E00FD4F0083A091A303AA3F19F4E0E0E09380
:1003AE00A303A091A503AF5FA093A503AA3F29F4D1
:1003BE00E0E0E093A503689420F80E942E0D09F466
:1003CE00D9D009911991E991EFBFF991E991B991BC
:1003DE00A9919991899179916991F99019900990C2
:1003EE0018956A937A93AA93BA93EA93FA93EFB70E
:1003FE00EA93ABE9B2E00E94250DE991EFBFF991C6
:10040E00E991B991A9917991699118950E94120D6E
:10041E000E94000DE091A702E03091F1E0E0E09340
:10042E00A7020E94370D0E94400D0E9478100E9474
:10043E00450D0E94C610A0E0B4E284E799E40E9444
:10044E007810DF01CB010E944A0DDF01CB01E0E005
:10045E00F0E060E870E40E94C610DE010E94B50F65
:10046E000E947B110E948911E070FF7F6070707096
:10047E00DF01CB01E8E00E945111EBBDE881EABD3E
:10048E002496E991EFBFF991E991B991A9919991CA
:10049E00899179916991199009901895AA93EA9387
:1004AE00FA93EFB7EA93E091A603F0E03097D1F418
:1004BE00A091A703A03510F0A33608F002C0E1E02A
:1004CE0001C0E0E0E0936D020E94510DA43649F4A4
:1004DE00E0E0E093A703AB9ADD98DF98E1E0E093CC
:1004EE00A60342C0E130A0E0FA0769F40E94510D64
:1004FE00AC3341F4E0E0E093A703DD98DF9AE2E04D
:10050E00E093A60331C0E230A0E0FA07D9F4A0913F
:10051E00A703A03510F0A33608F002C0E1E001C039
:10052E00E0E0E0936E020E94510DA43651F4E0E03B
:10053E00E093A703DD98DF98E1E05E2EE3E0E09321
:10054E00A60312C0E330A0E0FA0771F40E94510D29
:10055E00AC3351F4E0E0E093A703AB98DD9ADF985B
:10056E00552011F4E093A603E991EFBFF991E991BB
:10057E00A99118951A9310E00E94590D11F01F5F62
:10058E00FBCF0E94590D19F40E942E0D09F076C072
:10059E00AC9AE12FF0E0E655FD4FE081F0E0E1305E
:1005AE00A0E0FA0719F4E1E08E2E68C0E230A0E078
:1005BE00FA0719F4E1E0BE2E61C0E330A0E0FA07BD
:1005CE0019F4E1E0AE2E5AC0E530A0E0FA0721F4AE
:1005DE00E1E0E093620252C0E630A0E0FA0721F4B7
:1005EE00E1E0E09363024AC0E730A0E0FA0719F4B5
:1005FE00E1E0CE2E43C0E830A0E0FA0721F4E1E0BE
:10060E00E09369023BC0E930A0E0FA0721F4E1E093
:10061E00E093640233C0EA30A0E0FA0721F4E1E08F
:10062E00E0936A022BC0EB30A0E0FA0721F4E1E080
:10063E00E0936B0223C0EC30A0E0FA0721F4E1E076
:10064E00E0936C021BC0E131A0E0FA0719F4E1E07F
:10065E004E2E14C0E333A0E0FA0719F4E1E07E2E2B
:10066E000DC0E434A0E0FA0719F4E1E06E2E06C0E6
:10067E00E838A0E0FA0711F4E1E09E2E19910895F2
:10068E000E949811E2971A930A9310E0E3E0EA832E
:10069E00FE013396FA93EA93E8EDF0E0FA93EA93CB
:1006AE00E8ADF9AD6AAD7BAD0E94600DDE0112962C
:1006BE000E94B5091E2F1F5FF0E0DE011296AE0FED
:1006CE00BF1FE4E0EC9300E0011758F4E02FF0E0D8
:1006DE00DE011296AE0FBF1FAC910E94CE090F5FC6
:1006EE00F3CF19810881E8960895AA93EF97A597FD
:1006FE000E94EC1110E000E030E020E000E0E3E0CA
:10070E00E88F01E020E0FE01E859FF4FE0812E174F
:10071E0080F5FE013496FA93EA93EEEDF0E0FA934B
:10072E00EA93E22FDE01A359BF4F0D90BC91A02D8D
:10073E00F0E00E94670D0E94600DDE0114960E948B
:10074E00B5091E2FE02FF0E0DE015896EA0FFB1FD1
:10075E00FA93EA93FE013696FA93EA93A12FBB27FA
:10076E000E948609010F0E946E0DECE2EC932F5F42
:10077E00CACF01500E946E0DE4E0EC9330E03017CA
:10078E0058F4E32FF0E0DE015896AE0FBF1FAC9188
:10079E000E94CE093F5FF3CF0E94F311EF96AC9605
:1007AE0008951A930A9310E0A0E0B0E00E94B711EA
:1007BE000E2F0B3BF1F00E94760DE0937702E09343
:1007CE007802E0937902E0937A02E0E00E94800DD5
:1007DE00EEE4F1E66CEB70E00E94890DA1E0B0E072
:1007EE00EEE4F1E66CEB70E00E94C311E4EEF0E093
:1007FE0010C015E0A12F0E94920D19E0A12F0E94AA
:10080E009E0DA1E0B0E00E94AF110E94890DE8E0BC
:10081E00F1E0FA93EA930E94AA0D0E9493110E94AE
:10082E00B30D0E949311E091A302F091A402609186
:10083E00A5027091A6020E9493118CE00E947B0B80
:10084E002E96099119910895E0EEEABBE0E2EBBB1A
:10085E00E2E9E7BBE0E0E8BBE9E1E4BBE0E0E5BBF1
:10086E00E2EEE1BBE0E0E2BBE3BFE2BFECBFE3E4FC
:10087E00EFBDE8E1EEBDE0E0EDBDECBDE7BDE6BDF0
:10088E00E2E0EBBDE9E2EABDE0E0E9BDE8BDE1E9A9
:10089E00E9BFEBB7E068EBBFECE0E5BFE0E0E4BF3B
:1008AE00E0E8EABFE0E0EBB9E8E9EAB9E6E8E0BD86
:1008BE00E0E0E0BDE7E6E9B9E0E8E8B9E0E0E0BF96
:1008CE00E7B9E7E8E6B9E3E5EDB9E0E0EEB9E6BF92
:1008DE007894DE9A0895EFE0E1BD0895E0E0E2BD80
:1008EE00ECE0E5BDE0E0E4BDEBEFE3BD0895EE978F
:1008FE00D15085E6A1EBB0E0E2E7F0E00E94F811FE
:10090E0030E020E050E040E0E4B7E8839DDF49DFCF
:10091E0088EB9BE00197F1F7E1DFFE01EC5CFE4F07
:10092E000E94BC0DFE01E65DFE4F0E94BC0D0E94B2
:10093E00C40DE0E0EA93A4E0B0E00E949809DD2443
:10094E00CADFE881E87029F0A8EAB3E00E94CA0D78
:10095E0005C0E0E0E093A803E093A903A895E09119
:10096E006B02E03011F1E0E0E093A303E0936B0241
:10097E00DE01AB50BF4FED93ED93ED93EC93DE01A3
:10098E00AB50BF4F0D901D908D919C91D001A03416
:10099E00E2E4BE07EFE08E07E0E09E0730F4DE01F2
:1009AE00AB50BF4F0E94250DEACFE0916C02E030B4
:1009BE0009F442C0E0E0E0936C020E94D00D21E009
:1009CE00E32FF0E0E555FD4FA081A43021F0E0913A
:1009DE00A3033E1708F008C00E94DC0DE555FD4F3D
:1009EE00E081EC933F5FECCFA091A302B091A40203
:1009FE008091A5029091A602AE34E1E6BE07ECEB23
:100A0E008E07E0E09E07A1F4E22FF0E0FF93EF9354
:100A1E00DE01AA5EBE4F0E94A20BAF91BF910E9453
:100A2E00C311DE01AA5EBE4F0E94A20B0E94890D69
:100A3E00E0E0E093A303AC98E0916902E03009F4A2
:100A4E0085C0E0E0E09369020E94D00DE32FF0E054
:100A5E00E655FD4FA081A43021F0E091A3033E178F
:100A6E0008F008C00E94DC0DE655FD4FE081EC93C6
:100A7E003F5FECCFDE01AA5EBE4F0E94B509DE01DC
:100A8E00AC5EBE4FEC93FE01EA5EFE4FFA93EA9324
:100A9E00ACE20E94A8098F01FE01EA5EFE4FAE2F66
:100AAE00E02FEA1BEF5FDE01AD5EBE4FEC93FE0161
:100ABE00EC5CFE4FFA93EA93FE01E85EFE4F319630
:100ACE00FA93EA93FE01E95EFE4FE081F0E0319782
:100ADE00DF010E948609DE01AD5EBE4FAC91FE01C4
:100AEE00EC5EFE4FE081EA1BDE01AE5EBE4FEC9384
:100AFE00FE01E65DFE4FFA93EA93FE01EB5EFE4FBA
:100B0E00E081F0E0DE01A85EBE4FEA0FFB1FFA9314
:100B1E00EA93DE01AA5EBE4FAC91BB270E94860906
:100B2E00DE01AC5CBE4F0E94E80B0E94E60DDE01BA
:100B3E00A65DBE4F0E94E80B0E94EF0D0E94F80DBD
:100B4E00E0E0E093A3030E94080EAC98CC2009F4D9
:100B5E0052C0CC2430E0A0918F02B09190028091CF
:100B6E00910290919202E0918702F0918802609139
:100B7E00890270918A020E9421107F936F93FF93D6
:100B8E00EF93A0918B02B0918C0280918D02909187
:100B9E008E020E940C0E0E942110AF91BF918F9178
:100BAE009F910E94C6100E94E60D0E940C0E0E949C
:100BBE00150E0E947810A0918702B0918802809144
:100BCE00890290918A020E94A2110E9421100E9415
:100BDE00EF0D0E94080E0E94AA0D0E941E0E0E948A
:100BEE002A0E0E94330E0E94F80D0E94C40D0E9420
:100BFE00360EE093A303E1E0E61541F4E0E0E09366
:100C0E00A303772466244424BB24AC98E1E0E815C2
:100C1E0009F041C0E0E0E093A30388240E94080E8F
:100C2E00A0E0B0E00E94B7114E2FA1E0B0E00E940C
:100C3E00AF11DE01A750BF4FED93FD936D937C93E3
:100C4E004B3B29F00E94760D0E94800D08C025E0D6
:100C5E00A22F0E94920D29E0A22F0E949E0DE091DC
:100C6E007302F091740260917502709176020E9487
:100C7E001E0E0E94150E0E943B0EDF01FE01E75074
:100C8E00FF4F0190119061917081F0010E94410E11
:100C9E00A3E02BDDAC98E0916202E03041F4E091EC
:100CAE006302E03021F4E0916402E03019F0E0E0FC
:100CBE00E093A303E0916D02E030C1F06ADADE0149
:100CCE00A15FBE4FED93FC930E94460E0E946211EF
:100CDE000E942F11DE01AB5FBE4FED93FD936D931E
:100CEE007C93DE01A55FBE4F0E94CA0DE0916E029D
:100CFE00E030C1F04EDADE01A35FBE4FED93FC9300
:100D0E000E944F0E0E9462110E942F11DE01AF5FF2
:100D1E00BE4FED93FD936D937C93DE01A75FBE4FA7
:100D2E000E94CA0DE0916102E03029F0E1E0DE019F
:100D3E00AB5EBE4FEC93E0916802E03079F0E0E0FC
:100D4E00F0E06BE373E40E941E0EDF010E94580E6A
:100D5E000E94410E0E94360EE0936802552081F0EB
:100D6E00DE01A55FBE4F0D90BC91A02D109741F0F6
:100D7E00DE01A75FBE4F0D90BC91A02D109709F418
:100D8E00BBC2E0916A02E030B9F0E091A803F091A5
:100D9E00A9030E94610EDE01AB54BF4FED93FD938C
:100DAE006D937C930E94C40DA1E09FDCE0E0E09384
:100DBE006A02E093A303AC98FE01E55FFE4F01903B
:100DCE00F081E02D0E94610E0E94460E0E949F113E
:100DDE000E94C610DE01AB52BF4FED93FD936D9393
:100DEE007C93FE01E75FFE4F0190F081E02D0E94A3
:100DFE00610E0E944F0E0E949F110E94C610DE01CE
:100E0E00AF52BF4FED93FD936D937C93E0E0DE0107
:100E1E00A55FBE4FED93EC93DE01A75FBE4FED9342
:100E2E00EC93DE01AB5FBE4FED93ED93ED93EC9340
:100E3E00DE01AF5FBE4FED93ED93ED93EC93552432
:100E4E00E0916002E030A1F00E94660E0E94800EDA
:100E5E000E94890E0E942810DE01AF51BF4FED9304
:100E6E00FD936D937C93DE01A350BF4F0E94250D21
:100E7E00FE01EB5EFE4FE081E03009F4DAC0E0E007
:100E8E00DE01AB5EBE4FEC93FE01E350FF4F0190CF
:100E9E00119061917081F0010E94890E0E94EC0FF9
:100EAE000E94C610DE01A353BF4FED93FD936D93C9
:100EBE007C930E94580E0E94EC0FA0E0B0E48CE1EF
:100ECE0096E40E947810DF01CB01E0917F02F09151
:100EDE00800260918102709182020E94C610DE0132
:100EEE00A753BF4FED93FD936D937C93E0E0DE012E
:100EFE00AF51BF4FED93ED93ED93EC93DE01A35005
:100F0E00BF4FED93ED93ED93EC930E94920EE0E0C4
:100F1E00E0936102E0936002E0916502E030E1F05F
:100F2E000E949B0EE0938302F093840260938502ED
:100F3E00709386020E94A40EE0938702F0938802BB
:100F4E006093890270938A020E94AD0E0E94AF0ECA
:100F5E000E94360EE0936502E0916602E030E1F009
:100F6E000E949B0EE0938B02F0938C0260938D0295
:100F7E0070938E020E94A40EE0938F02F093900263
:100F8E0060939102709392020E94AD0E0E94AF0E7A
:100F9E000E94360EE0936602E0916702E03009F49B
:100FAE0048C00E942A0E0E94A40E0E94B90E0E94F2
:100FBE00C10EDE01A753BF4F0D901D908D919C91D8
:100FCE00D001E0916F02F091700260917102709108
:100FDE0072020E942110DF01CB010E949B0E0E9423
:100FEE00C610A0E0B0E088EC92E40E947810DE011A
:100FFE00AB53BF4FED93FD936D937C930E94AD0E5B
:10100E000E94370D0E943B0EDE01AB53BF4F0D9079
:10101E001D908D919C91D0010E94330EFE01EB54D8
:10102E00FF4F3C960E94AF0EA4E05FDBE0E0E09342
:10103E006702FE01EB52FF4F01901190619170819A
:10104E00F0010E94CA0E0E942810DE01A351BF4F6C
:10105E00ED93FD936D937C93FE01EF52FF4F019044
:10106E00119061917081F0010E94D30E0E942810A0
:10107E00DE01A751BF4FED93FD936D937C930E94BC
:10108E00660E533009F036C1E0E0DE01AF50BF4FBF
:10109E00ED93ED93ED93EC93DE01A352BF4FED93E1
:1010AE00ED93ED93EC93DE01A752BF4FED93ED93CD
:1010BE00ED93EC930E94920EE52F0E941F0D0E945D
:1010CE00450D0E9428100E94CA0E0E94DC0EE52FCC
:1010DE000E941F0D0E94450D0E9428100E94D30EE3
:1010EE000E94E60EFE01EF5EFE4FE081F0E0DE01B3
:1010FE00A75ABF4F0E945D11EA0FFB1F0E94F00E10
:10110E000E94330EFE01EF5EFE4FE081F0E0DE0145
:10111E0011960E945D11EA0FFB1F0E94F90EDE016F
:10112E00AF5EBE4FAC91A73031F4E0E0DE01AF5EB2
:10113E00BE4FEC9306C0DE01AF5EBE4FEC91EF5F8B
:10114E00EC9330E0383038F5E32FF0E0DE01A75AAB
:10115E00BF4F0E94670D0E94020F0E942810E0935D
:10116E009302F09394026093950270939602E32F8C
:10117E00F0E0DE0111960E94670D0E940B0F0E9497
:10118E002810E0939702F09398026093990270935F
:10119E009A023F5FD7CF0E94020FE0E0F0E060E0DE
:1011AE0071E40E94E60E0E940B0FE0E0F0E060E0BA
:1011BE0071E40E94DC0EE1E0E41599F4E0E0E093C6
:1011CE00A303FE01E752FF4F0190119061917081D0
:1011DE00F0010E941E0E0E94F90E0E94C40DA2E0A4
:1011EE0084DA0E94F00EFE01E352FF4F019011903F
:1011FE0061917081F0010E942110DE01AB51BF4F51
:10120E00ED93FD936D937C93772031F00E94140F34
:10121E0037DAE0E0E093A3030E94150E0E94E4117A
:10122E0029F00E942A0E0E94E41109F43AC00E948D
:10123E002A0E0E94800E0E94B90EDE01AF54BF4FDF
:10124E00ED93FD936D937C930E942A0E0E944A0D9E
:10125E000E94140F0E940B1110F4969A01C09698DA
:10126E00DE01AF54BF4F0D901D908D919C91D0011A
:10127E000E949A0B0E94C10E0E94370DEDECFCEC01
:10128E006CE47FE30E940B1109F008F407C0EEB581
:10129E00E360EEBDE1E0E093A70203C0EEB5E87FA8
:1012AE00EEBDBB2031F0E0E0E093A3030E94370DCA
:1012BE00E7D9E0E0DE01A351BF4FED93ED93ED933F
:1012CE00EC93DE01A751BF4FED93ED93ED93EC93AD
:1012DE0050E0E0939302E0939402E0939502E09342
:1012EE009602E0939702E0939802E0939902E093BE
:1012FE009A0201C05F5F01C0552430CBFFCFBA9375
:10130E00AA9399818881009641F0BD81AC81FB81C1
:10131E00EA8161916D930197E1F7FD81EC8126964B
:10132E000895BA93AA93B981A881109631F0FC81E1
:10133E00EB816A8161931197E9F7EB81FC810C9443
:10134E00170AAA93A991E991F991B081AB1729F0E7
:10135E003196BB23D1F7EE27FF270895BA93AA93B0
:10136E00A991B991EE27FF276D91662311F0319661
:10137E00FBCF0895BA93AA93AA27BB27E991F991B7
:10138E000590002011F01196FBCFFD010895AA9350
:10139E005D9BFECFE881ECB90C94EA0CBA93AA934C
:1013AE00AA81F5DFA881B9810E94CA0D23960895FE
:1013BE00BA93AA931A930A93AA81BB8112960E949A
:1013CE006C11309729F1AA81BB8114960E946C1181
:1013DE008F01309761F00230E0E01E0780F0F801D7
:1013EE0031978F01AA81BB811496ED93FC93AA814C
:1013FE00BB8112960E94CA0D3197AC81A083AA813F
:10140E00BB810E946C11FF2312F00E94CA0D06C010
:10141E00AA81BB81EFEFFFEFED93FC931981088159
:10142E0025960895BA93AA9326970E94EA1110E082
:10143E00AC85BD85E0E0F0E0ED93FC93EA89FB8995
:10144E003196EA8BFB8B3197E4912E2FE03009F425
:10145E0015C1E12FE03039F4253211F411E002C04C
:10146E000E941D0F0AC1E130A9F4253219F40E9421
:10147E001D0F02C112E040E000E02D3211F401E038
:10148E00FCC02B3211F44BE2F8C0203211F440E2D2
:10149E00F4C002C0E23039F450E013E0203311F40E
:1014AE000068EBC003C0E33009F0E7C0203310F052
:1014BE002A3308F007C0AAE05A9F502DE22FE053BE
:1014CE005E0FDBC0E22FE33649F40E94240FE88959
:1014DE00F989A481AA930E942A0FCEC0E33741F462
:1014EE000E94240F0E94300F0E94B5091E2F0AC0C1
:1014FE00E03761F40E94240F0E94300F0E94C10950
:10150E001E2F086002600F7730E034C0E43611F011
:10151E00E93611F4046002C0E53731F4E4E5F0E099
:10152E00EE83FF8315E00CC0E83511F4086003C0AC
:10153E00E83709F0A1C0EEE5F0E0EE83FF8314E09A
:10154E0002FF14C00E94240F0E943A0FAB85AA23FB
:10155E003AF4EA85FB850E943911EA87FB874DE252
:10156E00403011F01F5F01C00B7F04C00E94240F9A
:10157E000E943A0F00FD11C0151778F407FF08C03E
:10158E0002FF04C00B7F242F115001C020E301C0C5
:10159E0020E20E941D0F5150EFCF312F01FF17C0D7
:1015AE003030A1F003FF06C0EE81FF812591EE835E
:1015BE00FF8305C0AE81BF812D91AE83BF830E9494
:1015CE001D0F503009F051503150EACF4BC020E37F
:1015DE00EE81FF810E948511E887F987EE81FF81F8
:1015EE003296EE83FF83E885F985AA85BB85AE1713
:1015FE00BF0750F02F5FA885B985EA85FB85EA1BEA
:10160E00FB0BEA87FB87EFCF2A3328F003FF02C0DC
:10161E00295F01C0295D04FD1AC0213320F4A8857D
:10162E00B985119709F409C0531710F000FF01C0D6
:10163E0013C020E207FF0BC020E3006102FF07C0CA
:10164E000B7F4A930E942A0F503009F051500E948E
:10165E001D0F503009F051503150A885B9851297A1
:10166E0008F0B5CF00FF08C0503031F05150E0E225
:10167E00EA930E942A0FF8CF10E0E0CEAC85BD852C
:10168E000E946C110E94F11164960895FF92F82E3B
:10169E0026970E94EC110E94420F309719F4EFEF3B
:1016AE00FFEF1DC0DE0116960E942B118D010E94C8
:1016BE00420FEE83FF83E0E0E887E987DE011A96AA
:1016CE000E94490FEFEDF9E0FA93EA93DE011A96C4
:1016DE00A9DE9F01AE81BF81E0E0EC93F9010E948B
:1016EE00F3112A96FF900895FF92F82E26971A93DB
:1016FE000A93DE0114960E942B118D01E0E0EC831B
:10170E00ED83EE83EF83DE0118960E94490FE5ED1F
:10171E00F9E0FA93EA93DE01189684DE19810881C6
:10172E002896FF9008950E949811E991F991699178
:10173E0079917F770895BA93AA93B981A881EC9194
:10174E00AF93AE2F0E94F50CAF91EE2311F01196D0
:10175E00F6CFE894EC91ED3211F4689402C0EB32BE
:10176E0009F411960024112488279927EC91AF9340
:10177E00AE2F0E94EC0CAF91EE2389F0F001BC016C
:10178E001BD01AD00E0E1F1E861F971F15D0ED915F
:10179E00FF27E0530E0E1F1E8F1F9F1FE7CFF00176
:1017AE00BC0146F4E095F0956095709588273196CA
:1017BE00681F781F22960895000C111C881F991F10
:1017CE000895BA93AA932A970E94EA11E0E0E88757
:1017DE00E987EA87EB87A889B989EC915E2FAE2F4E
:1017EE000E94F50CE03031F0E889F9893196E88BEA
:1017FE00F98BF1CFE0E0EF835B3221F05D3239F40B
:10180E00E1E0EF83E889F9893196E88BF98BE0E026
:10181E004E2F5E2F08891989A889B989AC910E942B
:10182E00EC0CE03049F4A889B989AC91EEE20E9443
:10183E0067115E2FE03039F0452BE889F989319632
:10184E00E88BF98BE9CF28893989403029F1E8896D
:10185E00F9893197E88BF98BA889B989AC91AE32A9
:10186E00D9F0A889B989EC91F0E0F0970E94520F57
:10187E000E9462110E94EE0F0E942810DF01CB0120
:10188E000E94400D0E94C6100E94570FE889F989E8
:10189E003197E88BF98BE0CF0E945C0FA889B9894C
:1018AE001197A88BB98BA017B107A0F0EC91F0E0BF
:1018BE00F0970E94650F0E9462110E94EE0F0E9427
:1018CE0078100E94520F0E9428100E94570F0E94FB
:1018DE006A0FE4CFD9012F5F3F4F5C91553619F057
:1018EE00553409F057C0E0E04E2FEE83D9015C91DC
:1018FE005B3221F05D3221F4E1E0EE832F5F3F4F4A
:10190E00D9012F5F3F4FEC915E2FAE2F0E94EC0C52
:10191E00E03039F0AAE04A02F001E50FE0534E2F15
:10192E00EFCF473268F0EF81E03029F0EFEFFFEFB5
:10193E006FE77FEF3EC0EFEFFFEF6FE77FE739C056
:10194E0050E20E945C0F503089F00E94730F0E948B
:10195E00650F0E947810EC87FD876E877F87E42FD6
:10196E00E52311F00E946A0F5695EDCFEE81E0301F
:10197E0039F00E94730F0E94520F0E94C61006C0CB
:10198E000E94730F0E94520F0E947810E887F98709
:10199E006A877B87EF81E03041F0E885F9856A85BB
:1019AE007B850E94820F0E94570FE885F9856A8514
:1019BE007B850E94F11162960895AA93E881EFB992
:1019CE00779BFECFEFB121960895AA93E1E0F991AE
:1019DE00F03310F0FA3308F0EE270895AA93E1E001
:1019EE00F991F03229F0F93010F0FE3008F0EE27C0
:1019FE0008952497E0E0E883E983EA83EB83089572
:101A0E00AC81BD818E819F810E943411EC83FD8358
:101A1E006E837F8308950A921A926A937A938A93B9
:101A2E009A93AA93BA93EA93FA93EFB7EA93089527
:101A3E00F0E00E9462110E94EE0F08950E9476114E
:101A4E00EF5FFF4F6F4F7F4F0E9480110895E0911F
:101A5E00A303F0E03197E755FD4FA081A430089520
:101A6E00A0916F02B09170028091710290917202FA
:101A7E000895E0E0F0E060E271E40895A0E0B0E0E7
:101A8E0080E89FE30895E0E0F0E060E070E40E94FB
:101A9E00C6100895E091A703EF5FE093A703A0910E
:101AAE00A7030895E12FF0E0E755FD4FA081A33085
:101ABE0008950E94931184E00E944D0B289608957C
:101ACE000E945D11AE0FBF1F0E9470110895E02F8E
:101ADE000F5FF0E0DE015896AE0FBF1F0895E0E0F5
:101AEE00E0937302E0937402E0937502E093760242
:101AFE000895E0937B02E0937C02E0937D02E093F5
:101B0E007E020895E093A302F093A4026093A502CF
:101B1E007093A6020895BB270E94AF11E0937B023B
:101B2E00F0937C0260937D0270937E020895BB2732
:101B3E000E94AF11E0937302F093740260937502EA
:101B4E00709376020895E0917B02F0917C02609191
:101B5E007D0270917E020895E0917302F0917402FD
:101B6E0060917502709176020895FA93EA93E0E01F
:101B7E00EA93AAE0B0E00C949809FE01EB54FF4FF3
:101B8E00FA93EA930895ED91FD913196FE93EE93BB
:101B9E00089530E0FE01EA5EFE4FFA93EA93E0E02C
:101BAE00EA93A4E1B0E00C949809E32FF0E0DE0193
:101BBE00AA5EBE4FAE0FBF1FE32FF0E00895E09375
:101BCE007B02F0937C0260937D0270937E020895F7
:101BDE00E0937302F0937402609375027093760231
:101BEE000895A0E0B0E0EBEB0E94D311ACDFA5E0CE
:101BFE00B0E00E94C311B0DFA9E0B0E00E94C311B3
:101C0E000895A8EEB3E00C94780FE0918302F09162
:101C1E00840260918502709186020895A0917B02E4
:101C2E00B0917C0280917D0290917E020895DE013A
:101C3E00AB54BF4FED93FD936D937C93FE01EB542C
:101C4E00FF4F34960895A0917302B0917402809163
:101C5E0075029091760208950E948E110895A2E069
:101C6E000E947C03E0E00895F7DFFE01EB54FF4F86
:101C7E00389608950E94EC0F0E947B117ECFDE01F4
:101C8E00AB5FBE4F0D901D908D919C91D00108952C
:101C9E00DE01AF5FBE4F0D901D908D919C91D001D6
:101CAE000895E0919F02F091A0026091A1027091BF
:101CBE00A2020895662777270E94EE0F0895DE018F
:101CCE00AF52BF4F0D901D908D919C91D001FE0192
:101CDE00EB52FF4F0190119061917081F0010E94C3
:101CEE002110DE01AB51BF4FED93FD936D937C93AD
:101CFE000895FE01EB51FF4F01901190619170819B
:101D0E00F0010895DE01AF51BF4F0D901D908D91E2
:101D1E009C91D0010895E0E0DE01AB51BF4FED93F1
:101D2E00ED93ED93EC930895FE01E753FF4F019071
:101D3E00119061917081F0010895FE01E353FF4F00
:101D4E000190119061917081F0010895EDDF6FCFD8
:101D5E00DE01A353BF4F0D901D908D919C91D0012C
:101D6E007BDF0BCF0E942110DF01CB01ECDE0E9446
:101D7E00C6100895E0936F02F093700260937102A3
:101D8E00709372020895DE01A351BF4F0D901D9006
:101D9E008D919C91D0010895DE01A751BF4F0D90FA
:101DAE001D908D919C91D00108950E94C610DE0168
:101DBE00A352BF4FED93FD936D937C9308950E94B4
:101DCE00C610DE01A752BF4FED93FD936D937C932A
:101DDE000895DE01A752BF4F0D901D908D919C91DD
:101DEE00D0010895DE01A352BF4F0D901D908D912D
:101DFE009C91D00131CFA0919302B0919402809129
:101E0E009502909196020895A0919702B091980232
:101E1E008091990290919A020895DE01AB51BF4FC5
:101E2E000D901D908D919C91D00108952A93AD85B2
:101E3E00BE85EF85F88909950895E889F989349763
:101E4E00E88BF98B0895AD85BE85EF85F8890995E8
:101E5E000895A889B98914960E946C11EE83FF83A8
:101E6E00AE81BF810895A889B98914960E946C111C
:101E7E00EA87FB870895DE011C960E942B110E94B3
:101E8E006C1108950E942B110E946C11FA93EA9323
:101E9E001A930A930895A885B9858A859B85089516
:101EAE00E887F9876A877B870895E0E0F0E060E8CD
:101EBE007FE3EC87FD876E877F870895AC85BD85B0
:101ECE008E859F850895FADFD4DD0E947810EC8709
:101EDE00FD876E877F870895EC85FD856E857F85EE
:101EEE000895109639F088EB9BE00197F1F7A895CD
:101EFE001197C9F7089530976040704009F07058F7
:101F0E000895552342F4503811F4E0FF04C0319681
:101F1E00691F791F6BF050E8572711F45F93CFC0FC
:101F2E005F3F31F0660F000C57956795752F08953A
:101F3E005F9300200AF0CFC0C8C050E8192E1522BA
:101F4E00880F991F9527550F879550E8072E052264
:101F5E00660F771F7527550F67950895689401C012
:101F6E00E8945F93F2DF703818F07F3F08F4A7C053
:101F7E0056E1571BAAF4519558300EF4593030F0F3
:101F8E00EFEFFFEF6FEF7FE777F91AC07727552353
:101F9E00B9F0EE0FFF1F661F771F5A95D1F710C0CD
:101FAE007727583028F0EF2FF62F672F5850F9CF9C
:101FBE00552331F076956795F795E7955A95D1F7B4
:101FCE0000200AF453D15F910895689401C0E894FB
:101FDE00309760407040B1F0002426F0772312F461
:101FEE00009444D1172E7EE1112032F07A95EE0F37
:101FFE00FF1F661F111CF9CFEF2FF62F612D5F9378
:10200E008ADF5F9108954F93AF01FD01DA01AB01B5
:10201E00BC01CA01402D012C142E4F910895EA0FD8
:10202E00FB1F681F0895E095F0956095EF5FFF4FD9
:10203E006F4F08955F9381DF903871F150E8152648
:10204E0004C05F937ADF903839F1703821F1572F41
:10205E00591B2BF112F4D7DFFACF583118F0AA27FB
:10206E00BB278827583028F0AB2FB82F8827585019
:10207E00F9CF552329F08695B795A7955A95D9F797
:10208E00502D512572F0CBDF38F46795F795E79513
:10209E00739513F420C0B7DF3EDF5F910895D8F734
:1020AE00FBCFEA1BFB0B680B51F010F40094BBDF67
:1020BE00662392F3EE0FFF1F661F7A95CBF7EE277E
:1020CE00FF27662777275F910895EFEFFFEF6FE702
:1020DE007FEF5F910895EFEFFFEF6FE77FE75F917F
:1020EE0008955F932ADF703851F3903841F301243D
:1020FE000894791F23F41CF300203AF3ECCF0F92CF
:10210E001F932F933F934F93112722279927689F51
:10211E00A0018F9F302D410D591F6B9F300D411D1A
:10212E00591F8E9F27D0BF9F25D06A9F23D0BE9F59
:10213E001DD0AF9F1BD0AE9F110D291F391F491FF8
:10214E00591FE32FF42F652F522F4F913F912F914F
:10215E001F910F9066232AF0550FEE1FFF1F661F6B
:10216E0002C073954BF2CDDE5F910895100D211DC7
:10217E00391F02C0200D311D491F591F08955F934D
:10218E00DCDE703821F411200AF49FCFA4CF9038F2
:10219E0009F495CF01240894970B1BF4D4F3002077
:1021AE00F3CF792F1F932F933F934F931124112722
:1021BE00222733274427552790E2AE17BF078607FD
:1021CE00410730F0AE1BBF0B860B410B089401C0CC
:1021DE008894551F221F331F111CAA1FBB1F881F57
:1021EE00441F9A9551F7F901612D4F913F912F910F
:1021FE001F91662332F0550FEE1FFF1F661F7A9553
:10220E0043F27FDE5F91089599239AF0772342F08F
:10221E00971748F029F4AE17BF07860720F031F064
:10222E00989488940895989408940895189488948E
:10223E0008957723C2F7971798F3A9F7EA17FB07C4
:10224E00680788F399F3ECCF0024AF0DB01D089505
:10225E00EA0FFB1F681F791F0895EA2BFB2B682BD3
:10226E00792B0895F195E195F0400895F0956095DC
:10227E007095E195FF4F6F4F7F4F0895EE230E2E11
:10228E00FD01BC0131F0EE0FFF1F661F771F0A9490
:10229E00D1F70895EE230E2EFD01BC0131F0769597
:1022AE006795F795E7950A94D1F70895EE0FFF1FFE
:1022BE00EE0FFF1F08956F2F660F660B762F089592
:1022CE00EA17E1E009F0EE270895ED91FC911197E0
:1022DE000895ED91FD916D917C9113970895ED9177
:1022EE00FD916D917D910895ED93FD936D937C938A
:1022FE0008957E936E93FE93EE9308950590F49158
:10230E00E02D0895E881F9816A817B810895A0838B
:10231E00B1838283938308957A936A93FA93EA93AF
:10232E0008959A938A93BA93AA930895689401C0D4
:10233E00E89401D04DDE182E862F612D192E972F81
:10234E00712D1B2EBF2FF12D1A2EAE2FE12D0895BC
:10235E00129602D0BF011297119602D0FE2F11973E
:10236E00E199FECFFF93FFB7F894AEBBBFBBE09AE7
:10237E00EDB3FFBFFF91089507D012960F01FB0139
:10238E0003D0F0011297089507D01196EF93EF2F17
:10239E0003D0EF9111970895E19B02C0A895FCCF51
:1023AE009FB7F894AEBBBFBBE09A8DB3E81719F098
:1023BE00EDBBE29AE19A9FBF089500240A160B0620
:1023CE000806090608955A934A933A932A931A9344
:1023DE000A9308955D814C813B812A811981088180
:1023EE000895AC0FBD1F05900D928A95E1F70895E3
:00000001FF
